{
  "contractName": "Finocial",
  "abi": [
    {
      "constant": false,
      "inputs": [],
      "name": "unpause",
      "outputs": [],
      "payable": false,
      "stateMutability": "nonpayable",
      "type": "function"
    },
    {
      "constant": true,
      "inputs": [
        {
          "name": "account",
          "type": "address"
        }
      ],
      "name": "isPauser",
      "outputs": [
        {
          "name": "",
          "type": "bool"
        }
      ],
      "payable": false,
      "stateMutability": "view",
      "type": "function"
    },
    {
      "constant": true,
      "inputs": [],
      "name": "paused",
      "outputs": [
        {
          "name": "",
          "type": "bool"
        }
      ],
      "payable": false,
      "stateMutability": "view",
      "type": "function"
    },
    {
      "constant": false,
      "inputs": [],
      "name": "renouncePauser",
      "outputs": [],
      "payable": false,
      "stateMutability": "nonpayable",
      "type": "function"
    },
    {
      "constant": false,
      "inputs": [],
      "name": "renounceOwnership",
      "outputs": [],
      "payable": false,
      "stateMutability": "nonpayable",
      "type": "function"
    },
    {
      "constant": false,
      "inputs": [
        {
          "name": "account",
          "type": "address"
        }
      ],
      "name": "addPauser",
      "outputs": [],
      "payable": false,
      "stateMutability": "nonpayable",
      "type": "function"
    },
    {
      "constant": false,
      "inputs": [],
      "name": "pause",
      "outputs": [],
      "payable": false,
      "stateMutability": "nonpayable",
      "type": "function"
    },
    {
      "constant": true,
      "inputs": [],
      "name": "owner",
      "outputs": [
        {
          "name": "",
          "type": "address"
        }
      ],
      "payable": false,
      "stateMutability": "view",
      "type": "function"
    },
    {
      "constant": true,
      "inputs": [],
      "name": "isOwner",
      "outputs": [
        {
          "name": "",
          "type": "bool"
        }
      ],
      "payable": false,
      "stateMutability": "view",
      "type": "function"
    },
    {
      "constant": true,
      "inputs": [
        {
          "name": "",
          "type": "uint256"
        }
      ],
      "name": "loans",
      "outputs": [
        {
          "name": "",
          "type": "address"
        }
      ],
      "payable": false,
      "stateMutability": "view",
      "type": "function"
    },
    {
      "constant": false,
      "inputs": [
        {
          "name": "newOwner",
          "type": "address"
        }
      ],
      "name": "transferOwnership",
      "outputs": [],
      "payable": false,
      "stateMutability": "nonpayable",
      "type": "function"
    },
    {
      "inputs": [],
      "payable": false,
      "stateMutability": "nonpayable",
      "type": "constructor"
    },
    {
      "anonymous": false,
      "inputs": [
        {
          "indexed": false,
          "name": "",
          "type": "address"
        },
        {
          "indexed": false,
          "name": "",
          "type": "address"
        }
      ],
      "name": "LoanContractCreated",
      "type": "event"
    },
    {
      "anonymous": false,
      "inputs": [
        {
          "indexed": false,
          "name": "account",
          "type": "address"
        }
      ],
      "name": "Paused",
      "type": "event"
    },
    {
      "anonymous": false,
      "inputs": [
        {
          "indexed": false,
          "name": "account",
          "type": "address"
        }
      ],
      "name": "Unpaused",
      "type": "event"
    },
    {
      "anonymous": false,
      "inputs": [
        {
          "indexed": true,
          "name": "account",
          "type": "address"
        }
      ],
      "name": "PauserAdded",
      "type": "event"
    },
    {
      "anonymous": false,
      "inputs": [
        {
          "indexed": true,
          "name": "account",
          "type": "address"
        }
      ],
      "name": "PauserRemoved",
      "type": "event"
    },
    {
      "anonymous": false,
      "inputs": [
        {
          "indexed": true,
          "name": "previousOwner",
          "type": "address"
        },
        {
          "indexed": true,
          "name": "newOwner",
          "type": "address"
        }
      ],
      "name": "OwnershipTransferred",
      "type": "event"
    },
    {
      "constant": false,
      "inputs": [
        {
          "name": "_loanAmount",
          "type": "uint256"
        },
        {
          "name": "_duration",
          "type": "uint128"
        },
        {
          "name": "_interest",
          "type": "uint256"
        },
        {
          "name": "_collateralAddress",
          "type": "address"
        },
        {
          "name": "_collateralAmount",
          "type": "uint256"
        },
        {
          "name": "_collateralPriceInETH",
          "type": "uint256"
        }
      ],
      "name": "createNewLoanRequest",
      "outputs": [
        {
          "name": "_loanContractAddress",
          "type": "address"
        }
      ],
      "payable": false,
      "stateMutability": "nonpayable",
      "type": "function"
    },
    {
      "constant": true,
      "inputs": [],
      "name": "getAllLoans",
      "outputs": [
        {
          "name": "",
          "type": "address[]"
        }
      ],
      "payable": false,
      "stateMutability": "view",
      "type": "function"
    }
  ],
  "bytecode": "0x60806040523480156200001157600080fd5b506200002b62000139640100000000026401000000009004565b6000806101000a81548173ffffffffffffffffffffffffffffffffffffffff021916908373ffffffffffffffffffffffffffffffffffffffff1602179055506000809054906101000a900473ffffffffffffffffffffffffffffffffffffffff1673ffffffffffffffffffffffffffffffffffffffff16600073ffffffffffffffffffffffffffffffffffffffff167f8be0079c531659141344cd1fd0a4f28419497f9722a3daafe3b4186f6b6457e060405160405180910390a3620001186200010362000139640100000000026401000000009004565b62000141640100000000026401000000009004565b6000600260006101000a81548160ff021916908315150217905550620003be565b600033905090565b62000165816001620001ab640100000000026200131a179091906401000000009004565b8073ffffffffffffffffffffffffffffffffffffffff167f6719d08c1888103bea251a4ed56406bd0c3e69723c8a1686e017e7bbe159b6f860405160405180910390a250565b620001c682826200029a640100000000026401000000009004565b1515156200023c576040517f08c379a000000000000000000000000000000000000000000000000000000000815260040180806020018281038252601f8152602001807f526f6c65733a206163636f756e7420616c72656164792068617320726f6c650081525060200191505060405180910390fd5b60018260000160008373ffffffffffffffffffffffffffffffffffffffff1673ffffffffffffffffffffffffffffffffffffffff16815260200190815260200160002060006101000a81548160ff0219169083151502179055505050565b60008073ffffffffffffffffffffffffffffffffffffffff168273ffffffffffffffffffffffffffffffffffffffff161415151562000367576040517f08c379a00000000000000000000000000000000000000000000000000000000081526004018080602001828103825260228152602001807f526f6c65733a206163636f756e7420697320746865207a65726f20616464726581526020017f737300000000000000000000000000000000000000000000000000000000000081525060400191505060405180910390fd5b8260000160008373ffffffffffffffffffffffffffffffffffffffff1673ffffffffffffffffffffffffffffffffffffffff16815260200190815260200160002060009054906101000a900460ff16905092915050565b613bbc80620003ce6000396000f3fe608060405260043610620000d3576000357c0100000000000000000000000000000000000000000000000000000000900463ffffffff16806328d3933d14620000d85780633f4ba83a14620001b157806346fbf68e14620001cb5780635c975abb14620002385780636ef8d66d146200026a578063715018a6146200028457806382dc1ec4146200029e5780638456cb5914620002f35780638da5cb5b146200030d5780638f32d59b1462000367578063a5bfd16a1462000399578063e1ec3c68146200040a578063f2fde38b1462000489575b600080fd5b348015620000e557600080fd5b506200016f600480360360c0811015620000fe57600080fd5b810190808035906020019092919080356fffffffffffffffffffffffffffffffff16906020019092919080359060200190929190803573ffffffffffffffffffffffffffffffffffffffff1690602001909291908035906020019092919080359060200190929190505050620004de565b604051808273ffffffffffffffffffffffffffffffffffffffff1673ffffffffffffffffffffffffffffffffffffffff16815260200191505060405180910390f35b348015620001be57600080fd5b50620001c962000700565b005b348015620001d857600080fd5b506200021e60048036036020811015620001f157600080fd5b81019080803573ffffffffffffffffffffffffffffffffffffffff169060200190929190505050620008bd565b604051808215151515815260200191505060405180910390f35b3480156200024557600080fd5b5062000250620008dc565b604051808215151515815260200191505060405180910390f35b3480156200027757600080fd5b5062000282620008f3565b005b3480156200029157600080fd5b506200029c62000909565b005b348015620002ab57600080fd5b50620002f160048036036020811015620002c457600080fd5b81019080803573ffffffffffffffffffffffffffffffffffffffff16906020019092919050505062000a47565b005b3480156200030057600080fd5b506200030b62000b04565b005b3480156200031a57600080fd5b506200032562000cc2565b604051808273ffffffffffffffffffffffffffffffffffffffff1673ffffffffffffffffffffffffffffffffffffffff16815260200191505060405180910390f35b3480156200037457600080fd5b506200037f62000ceb565b604051808215151515815260200191505060405180910390f35b348015620003a657600080fd5b50620003b162000d4b565b6040518080602001828103825283818151815260200191508051906020019060200280838360005b83811015620003f6578082015181840152602081019050620003d9565b505050509050019250505060405180910390f35b3480156200041757600080fd5b5062000447600480360360208110156200043057600080fd5b810190808035906020019092919050505062000ddb565b604051808273ffffffffffffffffffffffffffffffffffffffff1673ffffffffffffffffffffffffffffffffffffffff16815260200191505060405180910390f35b3480156200049657600080fd5b50620004dc60048036036020811015620004af57600080fd5b81019080803573ffffffffffffffffffffffffffffffffffffffff16906020019092919050505062000e1a565b005b6000868686868686336000620004f3620013fa565b80898152602001886fffffffffffffffffffffffffffffffff166fffffffffffffffffffffffffffffffff1681526020018781526020018673ffffffffffffffffffffffffffffffffffffffff1673ffffffffffffffffffffffffffffffffffffffff1681526020018581526020018481526020018373ffffffffffffffffffffffffffffffffffffffff1673ffffffffffffffffffffffffffffffffffffffff1681526020018273ffffffffffffffffffffffffffffffffffffffff1673ffffffffffffffffffffffffffffffffffffffff16815260200198505050505050505050604051809103906000f080158015620005f3573d6000803e3d6000fd5b50905060038190806001815401808255809150509060018203906000526020600020016000909192909190916101000a81548173ffffffffffffffffffffffffffffffffffffffff021916908373ffffffffffffffffffffffffffffffffffffffff160217905550507f501964e95aa0f4c9e5c6801f352dc3f16f9d2dcc9a7b3341a8b120a2dcca72c13382604051808373ffffffffffffffffffffffffffffffffffffffff1673ffffffffffffffffffffffffffffffffffffffff1681526020018273ffffffffffffffffffffffffffffffffffffffff1673ffffffffffffffffffffffffffffffffffffffff1681526020019250505060405180910390a18090509695505050505050565b620007146200070e62000ea7565b620008bd565b1515620007af576040517f08c379a00000000000000000000000000000000000000000000000000000000081526004018080602001828103825260308152602001807f506175736572526f6c653a2063616c6c657220646f6573206e6f74206861766581526020017f207468652050617573657220726f6c650000000000000000000000000000000081525060400191505060405180910390fd5b600260009054906101000a900460ff16151562000834576040517f08c379a00000000000000000000000000000000000000000000000000000000081526004018080602001828103825260148152602001807f5061757361626c653a206e6f742070617573656400000000000000000000000081525060200191505060405180910390fd5b6000600260006101000a81548160ff0219169083151502179055507f5db9ee0a495bf2e6ff9c91a7834c1ba4fdd244a5e8aa4e537bd38aeae4b073aa6200087a62000ea7565b604051808273ffffffffffffffffffffffffffffffffffffffff1673ffffffffffffffffffffffffffffffffffffffff16815260200191505060405180910390a1565b6000620008d582600162000eaf90919063ffffffff16565b9050919050565b6000600260009054906101000a900460ff16905090565b620009076200090162000ea7565b62000fd3565b565b6200091362000ceb565b151562000988576040517f08c379a00000000000000000000000000000000000000000000000000000000081526004018080602001828103825260208152602001807f4f776e61626c653a2063616c6c6572206973206e6f7420746865206f776e657281525060200191505060405180910390fd5b600073ffffffffffffffffffffffffffffffffffffffff166000809054906101000a900473ffffffffffffffffffffffffffffffffffffffff1673ffffffffffffffffffffffffffffffffffffffff167f8be0079c531659141344cd1fd0a4f28419497f9722a3daafe3b4186f6b6457e060405160405180910390a360008060006101000a81548173ffffffffffffffffffffffffffffffffffffffff021916908373ffffffffffffffffffffffffffffffffffffffff160217905550565b62000a5b62000a5562000ea7565b620008bd565b151562000af6576040517f08c379a00000000000000000000000000000000000000000000000000000000081526004018080602001828103825260308152602001807f506175736572526f6c653a2063616c6c657220646f6573206e6f74206861766581526020017f207468652050617573657220726f6c650000000000000000000000000000000081525060400191505060405180910390fd5b62000b01816200102f565b50565b62000b1862000b1262000ea7565b620008bd565b151562000bb3576040517f08c379a00000000000000000000000000000000000000000000000000000000081526004018080602001828103825260308152602001807f506175736572526f6c653a2063616c6c657220646f6573206e6f74206861766581526020017f207468652050617573657220726f6c650000000000000000000000000000000081525060400191505060405180910390fd5b600260009054906101000a900460ff1615151562000c39576040517f08c379a00000000000000000000000000000000000000000000000000000000081526004018080602001828103825260108152602001807f5061757361626c653a207061757365640000000000000000000000000000000081525060200191505060405180910390fd5b6001600260006101000a81548160ff0219169083151502179055507f62e78cea01bee320cd4e420270b5ea74000d11b0c9f74754ebdbfc544b05a25862000c7f62000ea7565b604051808273ffffffffffffffffffffffffffffffffffffffff1673ffffffffffffffffffffffffffffffffffffffff16815260200191505060405180910390a1565b60008060009054906101000a900473ffffffffffffffffffffffffffffffffffffffff16905090565b60008060009054906101000a900473ffffffffffffffffffffffffffffffffffffffff1673ffffffffffffffffffffffffffffffffffffffff1662000d2f62000ea7565b73ffffffffffffffffffffffffffffffffffffffff1614905090565b6060600380548060200260200160405190810160405280929190818152602001828054801562000dd157602002820191906000526020600020905b8160009054906101000a900473ffffffffffffffffffffffffffffffffffffffff1673ffffffffffffffffffffffffffffffffffffffff168152602001906001019080831162000d86575b5050505050905090565b60038181548110151562000deb57fe5b906000526020600020016000915054906101000a900473ffffffffffffffffffffffffffffffffffffffff1681565b62000e2462000ceb565b151562000e99576040517f08c379a00000000000000000000000000000000000000000000000000000000081526004018080602001828103825260208152602001807f4f776e61626c653a2063616c6c6572206973206e6f7420746865206f776e657281525060200191505060405180910390fd5b62000ea4816200108b565b50565b600033905090565b60008073ffffffffffffffffffffffffffffffffffffffff168273ffffffffffffffffffffffffffffffffffffffff161415151562000f7c576040517f08c379a00000000000000000000000000000000000000000000000000000000081526004018080602001828103825260228152602001807f526f6c65733a206163636f756e7420697320746865207a65726f20616464726581526020017f737300000000000000000000000000000000000000000000000000000000000081525060400191505060405180910390fd5b8260000160008373ffffffffffffffffffffffffffffffffffffffff1673ffffffffffffffffffffffffffffffffffffffff16815260200190815260200160002060009054906101000a900460ff16905092915050565b62000fe98160016200121590919063ffffffff16565b8073ffffffffffffffffffffffffffffffffffffffff167fcd265ebaf09df2871cc7bd4133404a235ba12eff2041bb89d9c714a2621c7c7e60405160405180910390a250565b620010458160016200131a90919063ffffffff16565b8073ffffffffffffffffffffffffffffffffffffffff167f6719d08c1888103bea251a4ed56406bd0c3e69723c8a1686e017e7bbe159b6f860405160405180910390a250565b600073ffffffffffffffffffffffffffffffffffffffff168173ffffffffffffffffffffffffffffffffffffffff161415151562001157576040517f08c379a00000000000000000000000000000000000000000000000000000000081526004018080602001828103825260268152602001807f4f776e61626c653a206e6577206f776e657220697320746865207a65726f206181526020017f646472657373000000000000000000000000000000000000000000000000000081525060400191505060405180910390fd5b8073ffffffffffffffffffffffffffffffffffffffff166000809054906101000a900473ffffffffffffffffffffffffffffffffffffffff1673ffffffffffffffffffffffffffffffffffffffff167f8be0079c531659141344cd1fd0a4f28419497f9722a3daafe3b4186f6b6457e060405160405180910390a3806000806101000a81548173ffffffffffffffffffffffffffffffffffffffff021916908373ffffffffffffffffffffffffffffffffffffffff16021790555050565b62001221828262000eaf565b1515620012bc576040517f08c379a00000000000000000000000000000000000000000000000000000000081526004018080602001828103825260218152602001807f526f6c65733a206163636f756e7420646f6573206e6f74206861766520726f6c81526020017f650000000000000000000000000000000000000000000000000000000000000081525060400191505060405180910390fd5b60008260000160008373ffffffffffffffffffffffffffffffffffffffff1673ffffffffffffffffffffffffffffffffffffffff16815260200190815260200160002060006101000a81548160ff0219169083151502179055505050565b62001326828262000eaf565b1515156200139c576040517f08c379a000000000000000000000000000000000000000000000000000000000815260040180806020018281038252601f8152602001807f526f6c65733a206163636f756e7420616c72656164792068617320726f6c650081525060200191505060405180910390fd5b60018260000160008373ffffffffffffffffffffffffffffffffffffffff1673ffffffffffffffffffffffffffffffffffffffff16815260200190815260200160002060006101000a81548160ff0219169083151502179055505050565b604051612785806200140c8339019056fe60806040526000600d553480156200001657600080fd5b50604051610100806200278583398101806040526101008110156200003a57600080fd5b8101908080519060200190929190805190602001909291908051906020019092919080519060200190929190805190602001909291908051906020019092919080519060200190929190805190602001909291905050508760008001819055508560006001018190555086600060020160006101000a8154816fffffffffffffffffffffffffffffffff02191690836fffffffffffffffffffffffffffffffff1602179055504260006003018190555081600060060160006101000a81548173ffffffffffffffffffffffffffffffffffffffff021916908373ffffffffffffffffffffffffffffffffffffffff16021790555080600060070160006101000a81548173ffffffffffffffffffffffffffffffffffffffff021916908373ffffffffffffffffffffffffffffffffffffffff16021790555060008060070160146101000a81548160ff021916908360048111156200019457fe5b0217905550620001ce888760648a6fffffffffffffffffffffffffffffffff16620002be6401000000000262001f8a176401000000009004565b60006005018190555083600d819055506080604051908101604052808673ffffffffffffffffffffffffffffffffffffffff168152602001858152602001848152602001600060038111156200022057fe5b815250600060080160008201518160000160006101000a81548173ffffffffffffffffffffffffffffffffffffffff021916908373ffffffffffffffffffffffffffffffffffffffff160217905550602082015181600101556040820151816002015560608201518160030160006101000a81548160ff02191690836003811115620002a857fe5b021790555090505050505050505050506200070c565b600080620002db8362000403640100000000026401000000009004565b90506000620003906200030b60026004600a0a620004336401000000000262001d69179091906401000000009004565b6200037362000333600186620005046401000000000262001e36179091906401000000009004565b620003568a8c620004336401000000000262001d69179091906401000000009004565b620004336401000000000262001d69179091906401000000009004565b6200058f6401000000000262001c5d179091906401000000009004565b90506000620003af8887620005ea640100000000026401000000009004565b9050620003f6620003d88284620005046401000000000262001e36179091906401000000009004565b89620005046401000000000262001e36179091906401000000009004565b9350505050949350505050565b600062000429601e836200058f6401000000000262001c5d179091906401000000009004565b9050809050919050565b600080831415620004485760009050620004fe565b600082840290508284828115156200045c57fe5b04141515620004f9576040517f08c379a00000000000000000000000000000000000000000000000000000000081526004018080602001828103825260218152602001807f536166654d6174683a206d756c7469706c69636174696f6e206f766572666c6f81526020017f770000000000000000000000000000000000000000000000000000000000000081525060400191505060405180910390fd5b809150505b92915050565b600080828401905083811015151562000585576040517f08c379a000000000000000000000000000000000000000000000000000000000815260040180806020018281038252601b8152602001807f536166654d6174683a206164646974696f6e206f766572666c6f77000000000081525060200191505060405180910390fd5b8091505092915050565b6000620005e283836040805190810160405280601a81526020017f536166654d6174683a206469766973696f6e206279207a65726f0000000000008152506200063d640100000000026401000000009004565b905092915050565b6000620006356004600a0a620006188486620004336401000000000262001d69179091906401000000009004565b6200058f6401000000000262001c5d179091906401000000009004565b905092915050565b600080831182901515620006ef576040517f08c379a00000000000000000000000000000000000000000000000000000000081526004018080602001828103825283818151815260200191508051906020019080838360005b83811015620006b357808201518184015260208101905062000696565b50505050905090810190601f168015620006e15780820380516001836020036101000a031916815260200191505b509250505060405180910390fd5b5060008385811515620006fe57fe5b049050809150509392505050565b612069806200071c6000396000f3fe6080604052600436106100c5576000357c0100000000000000000000000000000000000000000000000000000000900463ffffffff1680631e19500f146100ca5780632210532b146100e15780632eaa3fe71461013e578063308759d1146101695780634a462b13146101945780638bec6373146101bf5780639e246f28146101d6578063a3f14e96146101ed578063a85f376114610330578063c7c775b01461037f578063cc4aa204146103eb578063d08e55be14610442578063f966ade71461044c575b600080fd5b3480156100d657600080fd5b506100df610456565b005b3480156100ed57600080fd5b5061011a6004803603602081101561010457600080fd5b81019080803590602001909291905050506108b5565b60405180848152602001838152602001828152602001935050505060405180910390f35b34801561014a57600080fd5b50610153610956565b6040518082815260200191505060405180910390f35b34801561017557600080fd5b5061017e61098d565b6040518082815260200191505060405180910390f35b3480156101a057600080fd5b506101a9610993565b6040518082815260200191505060405180910390f35b3480156101cb57600080fd5b506101d46109a0565b005b3480156101e257600080fd5b506101eb610e17565b005b3480156101f957600080fd5b50610202611234565b604051808e81526020018d6fffffffffffffffffffffffffffffffff166fffffffffffffffffffffffffffffffff1681526020018c81526020018b81526020018a600481111561024e57fe5b60ff1681526020018973ffffffffffffffffffffffffffffffffffffffff1673ffffffffffffffffffffffffffffffffffffffff1681526020018881526020018781526020018660038111156102a057fe5b60ff1681526020018581526020018481526020018373ffffffffffffffffffffffffffffffffffffffff1673ffffffffffffffffffffffffffffffffffffffff1681526020018273ffffffffffffffffffffffffffffffffffffffff1673ffffffffffffffffffffffffffffffffffffffff1681526020019d505050505050505050505050505060405180910390f35b34801561033c57600080fd5b506103696004803603602081101561035357600080fd5b810190808035906020019092919050505061135d565b6040518082815260200191505060405180910390f35b34801561038b57600080fd5b50610394611380565b6040518080602001828103825283818151815260200191508051906020019060200280838360005b838110156103d75780820151818401526020810190506103bc565b505050509050019250505060405180910390f35b3480156103f757600080fd5b506104006113d8565b604051808273ffffffffffffffffffffffffffffffffffffffff1673ffffffffffffffffffffffffffffffffffffffff16815260200191505060405180910390f35b61044a6113fe565b005b610454611700565b005b600060070160009054906101000a900473ffffffffffffffffffffffffffffffffffffffff1673ffffffffffffffffffffffffffffffffffffffff163373ffffffffffffffffffffffffffffffffffffffff1614151561051e576040517f08c379a000000000000000000000000000000000000000000000000000000000815260040180806020018281038252600e8152602001807f4e6f7420417574686f726973656400000000000000000000000000000000000081525060200191505060405180910390fd5b603c600060020160009054906101000a90046fffffffffffffffffffffffffffffffff16026fffffffffffffffffffffffffffffffff1660006004015401421115156105d2576040517f08c379a00000000000000000000000000000000000000000000000000000000081526004018080602001828103825260118152602001807f4c6f616e205374696c6c2041637469766500000000000000000000000000000081525060200191505060405180910390fd5b6004808111156105de57fe5b600060070160149054906101000a900460ff1660048111156105fc57fe5b14151515610672576040517f08c379a000000000000000000000000000000000000000000000000000000000815260040180806020018281038252601a8152602001807f436f6c6c61746572616c20436c61696d656420416c726561647900000000000081525060200191505060405180910390fd5b6000806005015411156108b35760006106986000600501546000600801600201546119fd565b90506106af81600d54611a1a90919063ffffffff16565b600d819055506004600060070160146101000a81548160ff021916908360048111156106d757fe5b0217905550600060080160000160009054906101000a900473ffffffffffffffffffffffffffffffffffffffff16600c60006101000a81548173ffffffffffffffffffffffffffffffffffffffff021916908373ffffffffffffffffffffffffffffffffffffffff160217905550600c60009054906101000a900473ffffffffffffffffffffffffffffffffffffffff1673ffffffffffffffffffffffffffffffffffffffff1663a9059cbb33836040518363ffffffff167c0100000000000000000000000000000000000000000000000000000000028152600401808373ffffffffffffffffffffffffffffffffffffffff1673ffffffffffffffffffffffffffffffffffffffff16815260200182815260200192505050602060405180830381600087803b15801561080a57600080fd5b505af115801561081e573d6000803e3d6000fd5b505050506040513d602081101561083457600080fd5b8101908080519060200190929190505050507f15925dd8a63fd2bc3c91ee05ab48c9aea56fd272df0960a9f93feb8e68811d863382604051808373ffffffffffffffffffffffffffffffffffffffff1673ffffffffffffffffffffffffffffffffffffffff1681526020018281526020019250505060405180910390a1505b565b6000806000806108f7600060020160009054906101000a90046fffffffffffffffffffffffffffffffff166fffffffffffffffffffffffffffffffff16611a64565b905061090d600080015460006001015483611a84565b9250600185141561092e5761092760008001546064611b02565b9150610933565b600091505b6109436000800154848484611b35565b9350838383935093509350509193909250565b6000610988600060040154600060020160009054906101000a90046fffffffffffffffffffffffffffffffff16611b7b565b905090565b600d5481565b6000600e80549050905090565b600060060160009054906101000a900473ffffffffffffffffffffffffffffffffffffffff1673ffffffffffffffffffffffffffffffffffffffff163373ffffffffffffffffffffffffffffffffffffffff16141515610a68576040517f08c379a000000000000000000000000000000000000000000000000000000000815260040180806020018281038252600e8152602001807f4e6f7420417574686f726973656400000000000000000000000000000000000081525060200191505060405180910390fd5b603c600060020160009054906101000a90046fffffffffffffffffffffffffffffffff16026fffffffffffffffffffffffffffffffff166000600401540142111515610b1c576040517f08c379a00000000000000000000000000000000000000000000000000000000081526004018080602001828103825260118152602001807f4c6f616e205374696c6c2041637469766500000000000000000000000000000081525060200191505060405180910390fd5b60026003811115610b2957fe5b600060080160030160009054906101000a900460ff166003811115610b4a57fe5b14151515610bc0576040517f08c379a000000000000000000000000000000000000000000000000000000000815260040180806020018281038252601b8152602001807f436f6c6c61746572616c20416c72656164792052657475726e6564000000000081525060200191505060405180910390fd5b600060080160000160009054906101000a900473ffffffffffffffffffffffffffffffffffffffff16600c60006101000a81548173ffffffffffffffffffffffffffffffffffffffff021916908373ffffffffffffffffffffffffffffffffffffffff1602179055506000610c426000600501546000600801600201546119fd565b90506002600060080160030160006101000a81548160ff02191690836003811115610c6957fe5b021790555080600d81905550600c60009054906101000a900473ffffffffffffffffffffffffffffffffffffffff1673ffffffffffffffffffffffffffffffffffffffff1663a9059cbb33610ccf84600060080160010154611a1a90919063ffffffff16565b6040518363ffffffff167c0100000000000000000000000000000000000000000000000000000000028152600401808373ffffffffffffffffffffffffffffffffffffffff1673ffffffffffffffffffffffffffffffffffffffff16815260200182815260200192505050602060405180830381600087803b158015610d5457600080fd5b505af1158015610d68573d6000803e3d6000fd5b505050506040513d6020811015610d7e57600080fd5b8101908080519060200190929190505050507ecb51a40b5bfb15b662e07023490bbef3ba700547267243b4110bc56b558bdd33610dcc83600060080160010154611a1a90919063ffffffff16565b604051808373ffffffffffffffffffffffffffffffffffffffff1673ffffffffffffffffffffffffffffffffffffffff1681526020018281526020019250505060405180910390a150565b600060080160000160009054906101000a900473ffffffffffffffffffffffffffffffffffffffff16600c60006101000a81548173ffffffffffffffffffffffffffffffffffffffff021916908373ffffffffffffffffffffffffffffffffffffffff160217905550600c60009054906101000a900473ffffffffffffffffffffffffffffffffffffffff1673ffffffffffffffffffffffffffffffffffffffff1663dd62ed3e33306040518363ffffffff167c0100000000000000000000000000000000000000000000000000000000028152600401808373ffffffffffffffffffffffffffffffffffffffff1673ffffffffffffffffffffffffffffffffffffffff1681526020018273ffffffffffffffffffffffffffffffffffffffff1673ffffffffffffffffffffffffffffffffffffffff1681526020019250505060206040518083038186803b158015610f6f57600080fd5b505afa158015610f83573d6000803e3d6000fd5b505050506040513d6020811015610f9957600080fd5b81019080805190602001909291905050506000600801600101541115611031577ffee3bc1c9a06a8de6bb9865159dbc6c023b733290bca216d49b940d9358de74233600060080160010154604051808373ffffffffffffffffffffffffffffffffffffffff1673ffffffffffffffffffffffffffffffffffffffff1681526020018281526020019250505060405180910390a1600080fd5b6001600060080160030160006101000a81548160ff0219169083600381111561105657fe5b02179055506001600060070160146101000a81548160ff0219169083600481111561107d57fe5b0217905550600c60009054906101000a900473ffffffffffffffffffffffffffffffffffffffff1673ffffffffffffffffffffffffffffffffffffffff166323b872dd33306000600801600101546040518463ffffffff167c0100000000000000000000000000000000000000000000000000000000028152600401808473ffffffffffffffffffffffffffffffffffffffff1673ffffffffffffffffffffffffffffffffffffffff1681526020018373ffffffffffffffffffffffffffffffffffffffff1673ffffffffffffffffffffffffffffffffffffffff1681526020018281526020019350505050602060405180830381600087803b15801561118357600080fd5b505af1158015611197573d6000803e3d6000fd5b505050506040513d60208110156111ad57600080fd5b8101908080519060200190929190505050507f3b3745ea708c50ef3df78b322408bee397df5a66dd45e0431ec4bb1076280de033600060080160010154604051808373ffffffffffffffffffffffffffffffffffffffff1673ffffffffffffffffffffffffffffffffffffffff1681526020018281526020019250505060405180910390a1565b60008060008060008060008060008060008060008060000154600060020160009054906101000a90046fffffffffffffffffffffffffffffffff16600060010154600060040154600060070160149054906101000a900460ff16600060080160000160009054906101000a900473ffffffffffffffffffffffffffffffffffffffff16600060080160010154600060080160020154600060080160030160009054906101000a900460ff16600060050154600d54600060060160009054906101000a900473ffffffffffffffffffffffffffffffffffffffff16600060070160009054906101000a900473ffffffffffffffffffffffffffffffffffffffff169c509c509c509c509c509c509c509c509c509c509c509c509c50909192939495969798999a9b9c565b600e8181548110151561136c57fe5b906000526020600020016000915090505481565b6060600e8054806020026020016040519081016040528092919081815260200182805480156113ce57602002820191906000526020600020905b8154815260200190600101908083116113ba575b5050505050905090565b600c60009054906101000a900473ffffffffffffffffffffffffffffffffffffffff1681565b6000800154341015151561147a576040517f08c379a00000000000000000000000000000000000000000000000000000000081526004018080602001828103825260208152602001807f53756666696369656e742066756e6473206e6f74207472616e7366657272656481525060200191505060405180910390fd5b6001600481111561148757fe5b600060070160149054906101000a900460ff1660048111156114a557fe5b14151561151a576040517f08c379a00000000000000000000000000000000000000000000000000000000081526004018080602001828103825260158152602001807f496e636f7272656374206c6f616e20737461747573000000000000000000000081525060200191505060405180910390fd5b33600060070160006101000a81548173ffffffffffffffffffffffffffffffffffffffff021916908373ffffffffffffffffffffffffffffffffffffffff1602179055506002600060070160146101000a81548160ff0219169083600481111561158057fe5b02179055507f747523545071b962ccd38531246e12d1c5f1cc7c926c4a7ff6febd23580d571f3334604051808373ffffffffffffffffffffffffffffffffffffffff1673ffffffffffffffffffffffffffffffffffffffff1681526020018281526020019250505060405180910390a142600060040181905550600060060160009054906101000a900473ffffffffffffffffffffffffffffffffffffffff1673ffffffffffffffffffffffffffffffffffffffff166108fc60008001549081150290604051600060405180830381858888f19350505050158015611669573d6000803e3d6000fd5b507f88faa995ac73021fdb872dc84f8f0c47e9d2a09a4acf2998ccd50eca07d66b71600060060160009054906101000a900473ffffffffffffffffffffffffffffffffffffffff166000800154604051808373ffffffffffffffffffffffffffffffffffffffff1673ffffffffffffffffffffffffffffffffffffffff1681526020018281526020019250505060405180910390a1565b603c600060020160009054906101000a90046fffffffffffffffffffffffffffffffff16026fffffffffffffffffffffffffffffffff166000600401540142111515156117b5576040517f08c379a00000000000000000000000000000000000000000000000000000000081526004018080602001828103825260158152602001807f4c6f616e204475726174696f6e2045787069726564000000000000000000000081525060200191505060405180910390fd5b60006117e7600060040154600060020160009054906101000a90046fffffffffffffffffffffffffffffffff16611b7b565b90506000806117f5836108b5565b9250509150813410151515611872576040517f08c379a000000000000000000000000000000000000000000000000000000000815260040180806020018281038252601f8152602001807f526571756972656420616d6f756e74206e6f74207472616e736665727265640081525060200191505060405180910390fd5b6000811415156118865761188581611bff565b5b600061189b8284611a1a90919063ffffffff16565b90506118b534600060050154611a1a90919063ffffffff16565b600060050181905550600080600501541115156118f4576003600060070160146101000a81548160ff021916908360048111156118ee57fe5b02179055505b600e849080600181540180825580915050906001820390600052602060002001600090919290919091505550600060070160009054906101000a900473ffffffffffffffffffffffffffffffffffffffff1673ffffffffffffffffffffffffffffffffffffffff166108fc829081150290604051600060405180830381858888f1935050505015801561198b573d6000803e3d6000fd5b507fc200a1f31dd659e356e0f112c82558e25f49f7b0f84438691cd96f5cb35588233384604051808373ffffffffffffffffffffffffffffffffffffffff1673ffffffffffffffffffffffffffffffffffffffff1681526020018281526020019250505060405180910390a150505050565b6000611a128284611c5d90919063ffffffff16565b905092915050565b6000611a5c83836040805190810160405280601e81526020017f536166654d6174683a207375627472616374696f6e206f766572666c6f770000815250611ca7565b905092915050565b6000611a7a601e83611c5d90919063ffffffff16565b9050809050919050565b6000611af9611ab36002611aa56004600a0a86611d6990919063ffffffff16565b611d6990919063ffffffff16565b611aeb611aca600186611e3690919063ffffffff16565b611add8789611d6990919063ffffffff16565b611d6990919063ffffffff16565b611c5d90919063ffffffff16565b90509392505050565b6000611b2d6004600a0a611b1f8486611d6990919063ffffffff16565b611c5d90919063ffffffff16565b905092915050565b6000611b6e611b4d8486611e3690919063ffffffff16565b611b608488611c5d90919063ffffffff16565b611e3690919063ffffffff16565b9050809050949350505050565b600080611ba4603c611b968642611a1a90919063ffffffff16565b611c5d90919063ffffffff16565b9050826fffffffffffffffffffffffffffffffff1681111515611bf357611be86001611bda601e84611c5d90919063ffffffff16565b611e3690919063ffffffff16565b915081915050611bf9565b60009150505b92915050565b7388347aeef7b66b743c46cb9d08459784fa1f690873ffffffffffffffffffffffffffffffffffffffff166108fc829081150290604051600060405180830381858888f19350505050158015611c59573d6000803e3d6000fd5b5050565b6000611c9f83836040805190810160405280601a81526020017f536166654d6174683a206469766973696f6e206279207a65726f000000000000815250611ec0565b905092915050565b60008383111582901515611d56576040517f08c379a00000000000000000000000000000000000000000000000000000000081526004018080602001828103825283818151815260200191508051906020019080838360005b83811015611d1b578082015181840152602081019050611d00565b50505050905090810190601f168015611d485780820380516001836020036101000a031916815260200191505b509250505060405180910390fd5b5060008385039050809150509392505050565b600080831415611d7c5760009050611e30565b60008284029050828482811515611d8f57fe5b04141515611e2b576040517f08c379a00000000000000000000000000000000000000000000000000000000081526004018080602001828103825260218152602001807f536166654d6174683a206d756c7469706c69636174696f6e206f766572666c6f81526020017f770000000000000000000000000000000000000000000000000000000000000081525060400191505060405180910390fd5b809150505b92915050565b6000808284019050838110151515611eb6576040517f08c379a000000000000000000000000000000000000000000000000000000000815260040180806020018281038252601b8152602001807f536166654d6174683a206164646974696f6e206f766572666c6f77000000000081525060200191505060405180910390fd5b8091505092915050565b600080831182901515611f6e576040517f08c379a00000000000000000000000000000000000000000000000000000000081526004018080602001828103825283818151815260200191508051906020019080838360005b83811015611f33578082015181840152602081019050611f18565b50505050905090810190601f168015611f605780820380516001836020036101000a031916815260200191505b509250505060405180910390fd5b5060008385811515611f7c57fe5b049050809150509392505050565b600080611f9683611a64565b90506000611ffb611fb560026004600a0a611d6990919063ffffffff16565b611fed611fcc600186611e3690919063ffffffff16565b611fdf8a8c611d6990919063ffffffff16565b611d6990919063ffffffff16565b611c5d90919063ffffffff16565b905060006120098887611b02565b90506120306120218284611e3690919063ffffffff16565b89611e3690919063ffffffff16565b935050505094935050505056fea165627a7a72305820ddc3ae3c30a78a6c3e401f8eb3f69ecdacb1b9261692f496ae7334e042c4d6e10029a165627a7a723058200b9224a96128741013b1bb439132a5aed18870fcd3efadabaf429e22bc3dc2320029",
  "source": "pragma solidity ^0.5.0;\n\nimport \"openzeppelin-solidity/contracts/ownership/Ownable.sol\";\nimport \"openzeppelin-solidity/contracts/lifecycle/Pausable.sol\";\nimport \"./FinocialLoan.sol\";\n\ncontract Finocial is Ownable, Pausable {\n\n    address[] public loans;\n\n    constructor() public {\n\n    }\n\n    event LoanContractCreated(address, address);\n\n    function createNewLoanRequest(uint256 _loanAmount, uint128 _duration,\n        uint256 _interest, address _collateralAddress,\n        uint256 _collateralAmount, uint256 _collateralPriceInETH) public returns(address _loanContractAddress) {\n\n            _loanContractAddress = address (new FinocialLoan(_loanAmount, _duration, _interest, _collateralAddress, _collateralAmount, _collateralPriceInETH, msg.sender, address(0)));\n\n            loans.push(_loanContractAddress);\n\n            emit LoanContractCreated(msg.sender, _loanContractAddress);\n\n            return _loanContractAddress;\n    }\n\n    function getAllLoans() public view returns(address[] memory){\n        return loans;\n    }\n\n}\n",
  "sourcePath": "/home/toor/cryptolendr.eth/contracts/Finocial.sol",
  "compiler": {
    "name": "solc",
    "version": "0.5.0+commit.1d4f565a.Emscripten.clang"
  },
  "schemaVersion": "3.0.23",
  "updatedAt": "2020-02-03T15:16:48.753Z",
  "devdoc": {
    "methods": {
      "isOwner()": {
        "details": "Returns true if the caller is the current owner."
      },
      "owner()": {
        "details": "Returns the address of the current owner."
      },
      "pause()": {
        "details": "Called by a pauser to pause, triggers stopped state."
      },
      "paused()": {
        "details": "Returns true if the contract is paused, and false otherwise."
      },
      "renounceOwnership()": {
        "details": "Leaves the contract without owner. It will not be possible to call `onlyOwner` functions anymore. Can only be called by the current owner.     * NOTE: Renouncing ownership will leave the contract without an owner, thereby removing any functionality that is only available to the owner."
      },
      "transferOwnership(address)": {
        "details": "Transfers ownership of the contract to a new account (`newOwner`). Can only be called by the current owner."
      },
      "unpause()": {
        "details": "Called by a pauser to unpause, returns to normal state."
      }
    }
  },
  "userdoc": {
    "methods": {}
  }
}