{
  "contractName": "FinocialLoan",
  "abi": [
    {
      "constant": true,
      "inputs": [],
      "name": "remainingCollateralAmount",
      "outputs": [
        {
          "name": "",
          "type": "uint256"
        }
      ],
      "payable": false,
      "stateMutability": "view",
      "type": "function"
    },
    {
      "constant": true,
      "inputs": [
        {
          "name": "",
          "type": "uint256"
        }
      ],
      "name": "repayments",
      "outputs": [
        {
          "name": "",
          "type": "uint256"
        }
      ],
      "payable": false,
      "stateMutability": "view",
      "type": "function"
    },
    {
      "constant": true,
      "inputs": [],
      "name": "ERC20",
      "outputs": [
        {
          "name": "",
          "type": "address"
        }
      ],
      "payable": false,
      "stateMutability": "view",
      "type": "function"
    },
    {
      "inputs": [
        {
          "name": "_loanAmount",
          "type": "uint256"
        },
        {
          "name": "_duration",
          "type": "uint128"
        },
        {
          "name": "_interestRate",
          "type": "uint256"
        },
        {
          "name": "_collateralAddress",
          "type": "address"
        },
        {
          "name": "_collateralAmount",
          "type": "uint256"
        },
        {
          "name": "_collateralPriceInETH",
          "type": "uint256"
        },
        {
          "name": "_borrower",
          "type": "address"
        },
        {
          "name": "_lender",
          "type": "address"
        }
      ],
      "payable": false,
      "stateMutability": "nonpayable",
      "type": "constructor"
    },
    {
      "anonymous": false,
      "inputs": [
        {
          "indexed": false,
          "name": "",
          "type": "address"
        },
        {
          "indexed": false,
          "name": "",
          "type": "uint256"
        }
      ],
      "name": "CollateralTransferToLoanFailed",
      "type": "event"
    },
    {
      "anonymous": false,
      "inputs": [
        {
          "indexed": false,
          "name": "",
          "type": "address"
        },
        {
          "indexed": false,
          "name": "",
          "type": "uint256"
        }
      ],
      "name": "CollateralTransferToLoanSuccessful",
      "type": "event"
    },
    {
      "anonymous": false,
      "inputs": [
        {
          "indexed": false,
          "name": "",
          "type": "address"
        },
        {
          "indexed": false,
          "name": "",
          "type": "uint256"
        }
      ],
      "name": "FundTransferToLoanSuccessful",
      "type": "event"
    },
    {
      "anonymous": false,
      "inputs": [
        {
          "indexed": false,
          "name": "",
          "type": "address"
        },
        {
          "indexed": false,
          "name": "",
          "type": "uint256"
        }
      ],
      "name": "FundTransferToBorrowerSuccessful",
      "type": "event"
    },
    {
      "anonymous": false,
      "inputs": [
        {
          "indexed": false,
          "name": "",
          "type": "address"
        },
        {
          "indexed": false,
          "name": "",
          "type": "uint256"
        }
      ],
      "name": "LoanRepaid",
      "type": "event"
    },
    {
      "anonymous": false,
      "inputs": [
        {
          "indexed": false,
          "name": "",
          "type": "address"
        },
        {
          "indexed": false,
          "name": "",
          "type": "uint256"
        }
      ],
      "name": "CollateralTransferReturnedToBorrower",
      "type": "event"
    },
    {
      "anonymous": false,
      "inputs": [
        {
          "indexed": false,
          "name": "",
          "type": "address"
        },
        {
          "indexed": false,
          "name": "",
          "type": "uint256"
        }
      ],
      "name": "CollateralClaimedByLender",
      "type": "event"
    },
    {
      "constant": false,
      "inputs": [],
      "name": "transferCollateralToLoan",
      "outputs": [],
      "payable": false,
      "stateMutability": "nonpayable",
      "type": "function"
    },
    {
      "constant": false,
      "inputs": [],
      "name": "approveLoanRequest",
      "outputs": [],
      "payable": true,
      "stateMutability": "payable",
      "type": "function"
    },
    {
      "constant": true,
      "inputs": [],
      "name": "getLoanData",
      "outputs": [
        {
          "name": "_loanAmount",
          "type": "uint256"
        },
        {
          "name": "_duration",
          "type": "uint128"
        },
        {
          "name": "_interest",
          "type": "uint256"
        },
        {
          "name": "startedOn",
          "type": "uint256"
        },
        {
          "name": "_loanStatus",
          "type": "uint8"
        },
        {
          "name": "_collateralAddress",
          "type": "address"
        },
        {
          "name": "_collateralAmount",
          "type": "uint256"
        },
        {
          "name": "_collateralPrice",
          "type": "uint256"
        },
        {
          "name": "_collateralStatus",
          "type": "uint8"
        },
        {
          "name": "_outstandingAmount",
          "type": "uint256"
        },
        {
          "name": "_remainingCollateralAmount",
          "type": "uint256"
        },
        {
          "name": "_borrower",
          "type": "address"
        },
        {
          "name": "_lender",
          "type": "address"
        }
      ],
      "payable": false,
      "stateMutability": "view",
      "type": "function"
    },
    {
      "constant": true,
      "inputs": [],
      "name": "getPaidRepaymentsCount",
      "outputs": [
        {
          "name": "",
          "type": "uint256"
        }
      ],
      "payable": false,
      "stateMutability": "view",
      "type": "function"
    },
    {
      "constant": true,
      "inputs": [],
      "name": "getAllPaidRepayments",
      "outputs": [
        {
          "name": "",
          "type": "uint256[]"
        }
      ],
      "payable": false,
      "stateMutability": "view",
      "type": "function"
    },
    {
      "constant": true,
      "inputs": [],
      "name": "getCurrentRepaymentNumber",
      "outputs": [
        {
          "name": "",
          "type": "uint256"
        }
      ],
      "payable": false,
      "stateMutability": "view",
      "type": "function"
    },
    {
      "constant": true,
      "inputs": [
        {
          "name": "repaymentNumber",
          "type": "uint256"
        }
      ],
      "name": "getRepaymentAmount",
      "outputs": [
        {
          "name": "amount",
          "type": "uint256"
        },
        {
          "name": "monthlyInterest",
          "type": "uint256"
        },
        {
          "name": "fees",
          "type": "uint256"
        }
      ],
      "payable": false,
      "stateMutability": "view",
      "type": "function"
    },
    {
      "constant": false,
      "inputs": [],
      "name": "repayLoan",
      "outputs": [],
      "payable": true,
      "stateMutability": "payable",
      "type": "function"
    },
    {
      "constant": false,
      "inputs": [],
      "name": "returnCollateralToBorrower",
      "outputs": [],
      "payable": false,
      "stateMutability": "nonpayable",
      "type": "function"
    },
    {
      "constant": false,
      "inputs": [],
      "name": "claimCollateralByLender",
      "outputs": [],
      "payable": false,
      "stateMutability": "nonpayable",
      "type": "function"
    }
  ],
  "bytecode": "0x60806040526000600d553480156200001657600080fd5b5060405161010080620025ee83398101806040526101008110156200003a57600080fd5b8101908080519060200190929190805190602001909291908051906020019092919080519060200190929190805190602001909291908051906020019092919080519060200190929190805190602001909291905050508760008001819055508560006001018190555086600060020160006101000a8154816fffffffffffffffffffffffffffffffff02191690836fffffffffffffffffffffffffffffffff1602179055504260006003018190555081600060060160006101000a81548173ffffffffffffffffffffffffffffffffffffffff021916908373ffffffffffffffffffffffffffffffffffffffff16021790555080600060070160006101000a81548173ffffffffffffffffffffffffffffffffffffffff021916908373ffffffffffffffffffffffffffffffffffffffff16021790555060008060070160146101000a81548160ff021916908360048111156200019457fe5b0217905550620001ce888760648a6fffffffffffffffffffffffffffffffff16620002be6401000000000262001e88176401000000009004565b60006005018190555083600d819055506080604051908101604052808673ffffffffffffffffffffffffffffffffffffffff168152602001858152602001848152602001600060038111156200022057fe5b815250600060080160008201518160000160006101000a81548173ffffffffffffffffffffffffffffffffffffffff021916908373ffffffffffffffffffffffffffffffffffffffff160217905550602082015181600101556040820151816002015560608201518160030160006101000a81548160ff02191690836003811115620002a857fe5b0217905550905050505050505050505062000677565b600080620002db8362000403640100000000026401000000009004565b90506000620003906200030b60026004600a0a620004336401000000000262001d31179091906401000000009004565b6200037362000333600186620005046401000000000262001dfe179091906401000000009004565b620003568a8c620004336401000000000262001d31179091906401000000009004565b620004336401000000000262001d31179091906401000000009004565b6200058f6401000000000262001c9e179091906401000000009004565b90506000620003af888762000624640100000000026401000000009004565b9050620003f6620003d88284620005046401000000000262001dfe179091906401000000009004565b89620005046401000000000262001dfe179091906401000000009004565b9350505050949350505050565b600062000429601e836200058f6401000000000262001c9e179091906401000000009004565b9050809050919050565b600080831415620004485760009050620004fe565b600082840290508284828115156200045c57fe5b04141515620004f9576040517f08c379a00000000000000000000000000000000000000000000000000000000081526004018080602001828103825260218152602001807f536166654d6174683a206d756c7469706c69636174696f6e206f766572666c6f81526020017f770000000000000000000000000000000000000000000000000000000000000081525060400191505060405180910390fd5b809150505b92915050565b600080828401905083811015151562000585576040517f08c379a000000000000000000000000000000000000000000000000000000000815260040180806020018281038252601b8152602001807f536166654d6174683a206164646974696f6e206f766572666c6f77000000000081525060200191505060405180910390fd5b8091505092915050565b6000808211151562000609576040517f08c379a000000000000000000000000000000000000000000000000000000000815260040180806020018281038252601a8152602001807f536166654d6174683a206469766973696f6e206279207a65726f00000000000081525060200191505060405180910390fd5b600082848115156200061757fe5b0490508091505092915050565b60006200066f6004600a0a620006528486620004336401000000000262001d31179091906401000000009004565b6200058f6401000000000262001c9e179091906401000000009004565b905092915050565b611f6780620006876000396000f3fe6080604052600436106100c5576000357c0100000000000000000000000000000000000000000000000000000000900463ffffffff1680631e19500f146100ca5780632210532b146100e15780632eaa3fe71461013e578063308759d1146101695780634a462b13146101945780638bec6373146101bf5780639e246f28146101d6578063a3f14e96146101ed578063a85f376114610330578063c7c775b01461037f578063cc4aa204146103eb578063d08e55be14610442578063f966ade71461044c575b600080fd5b3480156100d657600080fd5b506100df610456565b005b3480156100ed57600080fd5b5061011a6004803603602081101561010457600080fd5b81019080803590602001909291905050506108b5565b60405180848152602001838152602001828152602001935050505060405180910390f35b34801561014a57600080fd5b50610153610956565b6040518082815260200191505060405180910390f35b34801561017557600080fd5b5061017e61098d565b6040518082815260200191505060405180910390f35b3480156101a057600080fd5b506101a9610993565b6040518082815260200191505060405180910390f35b3480156101cb57600080fd5b506101d46109a0565b005b3480156101e257600080fd5b506101eb610e17565b005b3480156101f957600080fd5b50610202611234565b604051808e81526020018d6fffffffffffffffffffffffffffffffff166fffffffffffffffffffffffffffffffff1681526020018c81526020018b81526020018a600481111561024e57fe5b60ff1681526020018973ffffffffffffffffffffffffffffffffffffffff1673ffffffffffffffffffffffffffffffffffffffff1681526020018881526020018781526020018660038111156102a057fe5b60ff1681526020018581526020018481526020018373ffffffffffffffffffffffffffffffffffffffff1673ffffffffffffffffffffffffffffffffffffffff1681526020018273ffffffffffffffffffffffffffffffffffffffff1673ffffffffffffffffffffffffffffffffffffffff1681526020019d505050505050505050505050505060405180910390f35b34801561033c57600080fd5b506103696004803603602081101561035357600080fd5b810190808035906020019092919050505061135d565b6040518082815260200191505060405180910390f35b34801561038b57600080fd5b50610394611380565b6040518080602001828103825283818151815260200191508051906020019060200280838360005b838110156103d75780820151818401526020810190506103bc565b505050509050019250505060405180910390f35b3480156103f757600080fd5b506104006113d8565b604051808273ffffffffffffffffffffffffffffffffffffffff1673ffffffffffffffffffffffffffffffffffffffff16815260200191505060405180910390f35b61044a6113fe565b005b610454611700565b005b600060070160009054906101000a900473ffffffffffffffffffffffffffffffffffffffff1673ffffffffffffffffffffffffffffffffffffffff163373ffffffffffffffffffffffffffffffffffffffff1614151561051e576040517f08c379a000000000000000000000000000000000000000000000000000000000815260040180806020018281038252600e8152602001807f4e6f7420417574686f726973656400000000000000000000000000000000000081525060200191505060405180910390fd5b603c600060020160009054906101000a90046fffffffffffffffffffffffffffffffff16026fffffffffffffffffffffffffffffffff1660006004015401421115156105d2576040517f08c379a00000000000000000000000000000000000000000000000000000000081526004018080602001828103825260118152602001807f4c6f616e205374696c6c2041637469766500000000000000000000000000000081525060200191505060405180910390fd5b6004808111156105de57fe5b600060070160149054906101000a900460ff1660048111156105fc57fe5b14151515610672576040517f08c379a000000000000000000000000000000000000000000000000000000000815260040180806020018281038252601a8152602001807f436f6c6c61746572616c20436c61696d656420416c726561647900000000000081525060200191505060405180910390fd5b6000806005015411156108b35760006106986000600501546000600801600201546119fd565b90506106af81600d54611a1a90919063ffffffff16565b600d819055506004600060070160146101000a81548160ff021916908360048111156106d757fe5b0217905550600060080160000160009054906101000a900473ffffffffffffffffffffffffffffffffffffffff16600c60006101000a81548173ffffffffffffffffffffffffffffffffffffffff021916908373ffffffffffffffffffffffffffffffffffffffff160217905550600c60009054906101000a900473ffffffffffffffffffffffffffffffffffffffff1673ffffffffffffffffffffffffffffffffffffffff1663a9059cbb33836040518363ffffffff167c0100000000000000000000000000000000000000000000000000000000028152600401808373ffffffffffffffffffffffffffffffffffffffff1673ffffffffffffffffffffffffffffffffffffffff16815260200182815260200192505050602060405180830381600087803b15801561080a57600080fd5b505af115801561081e573d6000803e3d6000fd5b505050506040513d602081101561083457600080fd5b8101908080519060200190929190505050507f15925dd8a63fd2bc3c91ee05ab48c9aea56fd272df0960a9f93feb8e68811d863382604051808373ffffffffffffffffffffffffffffffffffffffff1673ffffffffffffffffffffffffffffffffffffffff1681526020018281526020019250505060405180910390a1505b565b6000806000806108f7600060020160009054906101000a90046fffffffffffffffffffffffffffffffff166fffffffffffffffffffffffffffffffff16611aa5565b905061090d600080015460006001015483611ac5565b9250600185141561092e5761092760008001546064611b43565b9150610933565b600091505b6109436000800154848484611b76565b9350838383935093509350509193909250565b6000610988600060040154600060020160009054906101000a90046fffffffffffffffffffffffffffffffff16611bbc565b905090565b600d5481565b6000600e80549050905090565b600060060160009054906101000a900473ffffffffffffffffffffffffffffffffffffffff1673ffffffffffffffffffffffffffffffffffffffff163373ffffffffffffffffffffffffffffffffffffffff16141515610a68576040517f08c379a000000000000000000000000000000000000000000000000000000000815260040180806020018281038252600e8152602001807f4e6f7420417574686f726973656400000000000000000000000000000000000081525060200191505060405180910390fd5b603c600060020160009054906101000a90046fffffffffffffffffffffffffffffffff16026fffffffffffffffffffffffffffffffff166000600401540142111515610b1c576040517f08c379a00000000000000000000000000000000000000000000000000000000081526004018080602001828103825260118152602001807f4c6f616e205374696c6c2041637469766500000000000000000000000000000081525060200191505060405180910390fd5b60026003811115610b2957fe5b600060080160030160009054906101000a900460ff166003811115610b4a57fe5b14151515610bc0576040517f08c379a000000000000000000000000000000000000000000000000000000000815260040180806020018281038252601b8152602001807f436f6c6c61746572616c20416c72656164792052657475726e6564000000000081525060200191505060405180910390fd5b600060080160000160009054906101000a900473ffffffffffffffffffffffffffffffffffffffff16600c60006101000a81548173ffffffffffffffffffffffffffffffffffffffff021916908373ffffffffffffffffffffffffffffffffffffffff1602179055506000610c426000600501546000600801600201546119fd565b90506002600060080160030160006101000a81548160ff02191690836003811115610c6957fe5b021790555080600d81905550600c60009054906101000a900473ffffffffffffffffffffffffffffffffffffffff1673ffffffffffffffffffffffffffffffffffffffff1663a9059cbb33610ccf84600060080160010154611a1a90919063ffffffff16565b6040518363ffffffff167c0100000000000000000000000000000000000000000000000000000000028152600401808373ffffffffffffffffffffffffffffffffffffffff1673ffffffffffffffffffffffffffffffffffffffff16815260200182815260200192505050602060405180830381600087803b158015610d5457600080fd5b505af1158015610d68573d6000803e3d6000fd5b505050506040513d6020811015610d7e57600080fd5b8101908080519060200190929190505050507ecb51a40b5bfb15b662e07023490bbef3ba700547267243b4110bc56b558bdd33610dcc83600060080160010154611a1a90919063ffffffff16565b604051808373ffffffffffffffffffffffffffffffffffffffff1673ffffffffffffffffffffffffffffffffffffffff1681526020018281526020019250505060405180910390a150565b600060080160000160009054906101000a900473ffffffffffffffffffffffffffffffffffffffff16600c60006101000a81548173ffffffffffffffffffffffffffffffffffffffff021916908373ffffffffffffffffffffffffffffffffffffffff160217905550600c60009054906101000a900473ffffffffffffffffffffffffffffffffffffffff1673ffffffffffffffffffffffffffffffffffffffff1663dd62ed3e33306040518363ffffffff167c0100000000000000000000000000000000000000000000000000000000028152600401808373ffffffffffffffffffffffffffffffffffffffff1673ffffffffffffffffffffffffffffffffffffffff1681526020018273ffffffffffffffffffffffffffffffffffffffff1673ffffffffffffffffffffffffffffffffffffffff1681526020019250505060206040518083038186803b158015610f6f57600080fd5b505afa158015610f83573d6000803e3d6000fd5b505050506040513d6020811015610f9957600080fd5b81019080805190602001909291905050506000600801600101541115611031577ffee3bc1c9a06a8de6bb9865159dbc6c023b733290bca216d49b940d9358de74233600060080160010154604051808373ffffffffffffffffffffffffffffffffffffffff1673ffffffffffffffffffffffffffffffffffffffff1681526020018281526020019250505060405180910390a1600080fd5b6001600060080160030160006101000a81548160ff0219169083600381111561105657fe5b02179055506001600060070160146101000a81548160ff0219169083600481111561107d57fe5b0217905550600c60009054906101000a900473ffffffffffffffffffffffffffffffffffffffff1673ffffffffffffffffffffffffffffffffffffffff166323b872dd33306000600801600101546040518463ffffffff167c0100000000000000000000000000000000000000000000000000000000028152600401808473ffffffffffffffffffffffffffffffffffffffff1673ffffffffffffffffffffffffffffffffffffffff1681526020018373ffffffffffffffffffffffffffffffffffffffff1673ffffffffffffffffffffffffffffffffffffffff1681526020018281526020019350505050602060405180830381600087803b15801561118357600080fd5b505af1158015611197573d6000803e3d6000fd5b505050506040513d60208110156111ad57600080fd5b8101908080519060200190929190505050507f3b3745ea708c50ef3df78b322408bee397df5a66dd45e0431ec4bb1076280de033600060080160010154604051808373ffffffffffffffffffffffffffffffffffffffff1673ffffffffffffffffffffffffffffffffffffffff1681526020018281526020019250505060405180910390a1565b60008060008060008060008060008060008060008060000154600060020160009054906101000a90046fffffffffffffffffffffffffffffffff16600060010154600060040154600060070160149054906101000a900460ff16600060080160000160009054906101000a900473ffffffffffffffffffffffffffffffffffffffff16600060080160010154600060080160020154600060080160030160009054906101000a900460ff16600060050154600d54600060060160009054906101000a900473ffffffffffffffffffffffffffffffffffffffff16600060070160009054906101000a900473ffffffffffffffffffffffffffffffffffffffff169c509c509c509c509c509c509c509c509c509c509c509c509c50909192939495969798999a9b9c565b600e8181548110151561136c57fe5b906000526020600020016000915090505481565b6060600e8054806020026020016040519081016040528092919081815260200182805480156113ce57602002820191906000526020600020905b8154815260200190600101908083116113ba575b5050505050905090565b600c60009054906101000a900473ffffffffffffffffffffffffffffffffffffffff1681565b6000800154341015151561147a576040517f08c379a00000000000000000000000000000000000000000000000000000000081526004018080602001828103825260208152602001807f53756666696369656e742066756e6473206e6f74207472616e7366657272656481525060200191505060405180910390fd5b6001600481111561148757fe5b600060070160149054906101000a900460ff1660048111156114a557fe5b14151561151a576040517f08c379a00000000000000000000000000000000000000000000000000000000081526004018080602001828103825260158152602001807f496e636f7272656374206c6f616e20737461747573000000000000000000000081525060200191505060405180910390fd5b33600060070160006101000a81548173ffffffffffffffffffffffffffffffffffffffff021916908373ffffffffffffffffffffffffffffffffffffffff1602179055506002600060070160146101000a81548160ff0219169083600481111561158057fe5b02179055507f747523545071b962ccd38531246e12d1c5f1cc7c926c4a7ff6febd23580d571f3334604051808373ffffffffffffffffffffffffffffffffffffffff1673ffffffffffffffffffffffffffffffffffffffff1681526020018281526020019250505060405180910390a142600060040181905550600060060160009054906101000a900473ffffffffffffffffffffffffffffffffffffffff1673ffffffffffffffffffffffffffffffffffffffff166108fc60008001549081150290604051600060405180830381858888f19350505050158015611669573d6000803e3d6000fd5b507f88faa995ac73021fdb872dc84f8f0c47e9d2a09a4acf2998ccd50eca07d66b71600060060160009054906101000a900473ffffffffffffffffffffffffffffffffffffffff166000800154604051808373ffffffffffffffffffffffffffffffffffffffff1673ffffffffffffffffffffffffffffffffffffffff1681526020018281526020019250505060405180910390a1565b603c600060020160009054906101000a90046fffffffffffffffffffffffffffffffff16026fffffffffffffffffffffffffffffffff166000600401540142111515156117b5576040517f08c379a00000000000000000000000000000000000000000000000000000000081526004018080602001828103825260158152602001807f4c6f616e204475726174696f6e2045787069726564000000000000000000000081525060200191505060405180910390fd5b60006117e7600060040154600060020160009054906101000a90046fffffffffffffffffffffffffffffffff16611bbc565b90506000806117f5836108b5565b9250509150813410151515611872576040517f08c379a000000000000000000000000000000000000000000000000000000000815260040180806020018281038252601f8152602001807f526571756972656420616d6f756e74206e6f74207472616e736665727265640081525060200191505060405180910390fd5b6000811415156118865761188581611c40565b5b600061189b8284611a1a90919063ffffffff16565b90506118b534600060050154611a1a90919063ffffffff16565b600060050181905550600080600501541115156118f4576003600060070160146101000a81548160ff021916908360048111156118ee57fe5b02179055505b600e849080600181540180825580915050906001820390600052602060002001600090919290919091505550600060070160009054906101000a900473ffffffffffffffffffffffffffffffffffffffff1673ffffffffffffffffffffffffffffffffffffffff166108fc829081150290604051600060405180830381858888f1935050505015801561198b573d6000803e3d6000fd5b507fc200a1f31dd659e356e0f112c82558e25f49f7b0f84438691cd96f5cb35588233384604051808373ffffffffffffffffffffffffffffffffffffffff1673ffffffffffffffffffffffffffffffffffffffff1681526020018281526020019250505060405180910390a150505050565b6000611a128284611c9e90919063ffffffff16565b905092915050565b6000828211151515611a94576040517f08c379a000000000000000000000000000000000000000000000000000000000815260040180806020018281038252601e8152602001807f536166654d6174683a207375627472616374696f6e206f766572666c6f77000081525060200191505060405180910390fd5b600082840390508091505092915050565b6000611abb601e83611c9e90919063ffffffff16565b9050809050919050565b6000611b3a611af46002611ae66004600a0a86611d3190919063ffffffff16565b611d3190919063ffffffff16565b611b2c611b0b600186611dfe90919063ffffffff16565b611b1e8789611d3190919063ffffffff16565b611d3190919063ffffffff16565b611c9e90919063ffffffff16565b90509392505050565b6000611b6e6004600a0a611b608486611d3190919063ffffffff16565b611c9e90919063ffffffff16565b905092915050565b6000611baf611b8e8486611dfe90919063ffffffff16565b611ba18488611c9e90919063ffffffff16565b611dfe90919063ffffffff16565b9050809050949350505050565b600080611be5603c611bd78642611a1a90919063ffffffff16565b611c9e90919063ffffffff16565b9050826fffffffffffffffffffffffffffffffff1681111515611c3457611c296001611c1b601e84611c9e90919063ffffffff16565b611dfe90919063ffffffff16565b915081915050611c3a565b60009150505b92915050565b7388347aeef7b66b743c46cb9d08459784fa1f690873ffffffffffffffffffffffffffffffffffffffff166108fc829081150290604051600060405180830381858888f19350505050158015611c9a573d6000803e3d6000fd5b5050565b60008082111515611d17576040517f08c379a000000000000000000000000000000000000000000000000000000000815260040180806020018281038252601a8152602001807f536166654d6174683a206469766973696f6e206279207a65726f00000000000081525060200191505060405180910390fd5b60008284811515611d2457fe5b0490508091505092915050565b600080831415611d445760009050611df8565b60008284029050828482811515611d5757fe5b04141515611df3576040517f08c379a00000000000000000000000000000000000000000000000000000000081526004018080602001828103825260218152602001807f536166654d6174683a206d756c7469706c69636174696f6e206f766572666c6f81526020017f770000000000000000000000000000000000000000000000000000000000000081525060400191505060405180910390fd5b809150505b92915050565b6000808284019050838110151515611e7e576040517f08c379a000000000000000000000000000000000000000000000000000000000815260040180806020018281038252601b8152602001807f536166654d6174683a206164646974696f6e206f766572666c6f77000000000081525060200191505060405180910390fd5b8091505092915050565b600080611e9483611aa5565b90506000611ef9611eb360026004600a0a611d3190919063ffffffff16565b611eeb611eca600186611dfe90919063ffffffff16565b611edd8a8c611d3190919063ffffffff16565b611d3190919063ffffffff16565b611c9e90919063ffffffff16565b90506000611f078887611b43565b9050611f2e611f1f8284611dfe90919063ffffffff16565b89611dfe90919063ffffffff16565b935050505094935050505056fea165627a7a72305820086f7ad8d0e24c7a85ea98474b7ad7f4f91c938e99f42d7737fba81e48cb04210029",
  "source": "pragma solidity ^0.5.0;\n\nimport \"openzeppelin-solidity/contracts/token/ERC20/IERC20.sol\";\nimport \"openzeppelin-solidity/contracts/math/SafeMath.sol\";\nimport \"./libs/LoanMath.sol\";\n\ncontract FinocialLoan {\n\n    using SafeMath for uint256;\n\n    uint256 constant PLATFORM_FEE_RATE = 100;\n    address constant WALLET_1 = 0x88347aeeF7b66b743C46Cb9d08459784FA1f6908;\n\n    enum LoanStatus {\n        INACTIVE,\n        ACTIVE,\n        FUNDED,\n        REPAID,\n        DEFAULT\n    }\n\n    enum CollateralStatus {\n        WAITING,\n        ARRIVED,\n        RETURNED,\n        DEFAULT\n    }\n\n    struct CollateralData {\n\n        address collateralAddress;\n        uint256 collateralAmount;\n        uint256 collateralPrice;\n        CollateralStatus collateralStatus;\n    }\n\n    struct LoanData {\n\n        uint256 loanAmount;\n        uint256 interestRate;\n        uint128 duration;\n        uint256 createdOn;\n        uint256 startedOn;\n        uint256 outstandingAmount;\n        address borrower;\n        address lender;\n        LoanStatus loanStatus;\n        CollateralData collateral;\n\n    }\n\n    LoanData loan;\n\n    IERC20 public ERC20;\n\n    uint256 public remainingCollateralAmount = 0;\n\n    struct Repayment {\n        uint256 repaidOn;\n        uint256 amount;\n        uint256 repaymentNumber;\n    }\n\n    uint256[] public repayments;\n\n    event CollateralTransferToLoanFailed(address, uint256);\n    event CollateralTransferToLoanSuccessful(address, uint256);\n    event FundTransferToLoanSuccessful(address, uint256);\n    event FundTransferToBorrowerSuccessful(address, uint256);\n    event LoanRepaid(address, uint256);\n    event CollateralTransferReturnedToBorrower(address, uint256);\n    event CollateralClaimedByLender(address, uint256);\n\n    modifier OnlyBorrower {\n        require(msg.sender == loan.borrower, \"Not Authorised\");\n        _;\n    }\n\n    modifier OnlyLender {\n        require(msg.sender == loan.lender, \"Not Authorised\");\n        _;\n    }\n\n    constructor(uint256 _loanAmount, uint128 _duration,\n        uint256 _interestRate, address _collateralAddress,\n        uint256 _collateralAmount, uint256 _collateralPriceInETH, address _borrower, address _lender) public {\n        loan.loanAmount = _loanAmount;\n        loan.interestRate = _interestRate;\n        loan.duration = _duration;\n        loan.createdOn = now;\n        loan.borrower = _borrower;\n        loan.lender = _lender;\n        loan.loanStatus = LoanStatus.INACTIVE;\n        loan.outstandingAmount = LoanMath.calculateTotalLoanRepaymentAmount(_loanAmount, _interestRate, PLATFORM_FEE_RATE, _duration);\n        remainingCollateralAmount = _collateralAmount;\n        loan.collateral = CollateralData(_collateralAddress, _collateralAmount, _collateralPriceInETH, CollateralStatus.WAITING);\n    }\n\n    function transferCollateralToLoan() public {\n\n        ERC20 = IERC20(loan.collateral.collateralAddress);\n\n        if(loan.collateral.collateralAmount > ERC20.allowance(msg.sender, address(this))) {\n            emit CollateralTransferToLoanFailed(msg.sender, loan.collateral.collateralAmount);\n            revert();\n        }\n\n        loan.collateral.collateralStatus = CollateralStatus.ARRIVED;\n        loan.loanStatus = LoanStatus.ACTIVE;\n\n        ERC20.transferFrom(msg.sender, address(this), loan.collateral.collateralAmount);\n\n        emit CollateralTransferToLoanSuccessful(msg.sender, loan.collateral.collateralAmount);\n\n    }\n\n    function approveLoanRequest() public payable {\n\n        require(msg.value >= loan.loanAmount, \"Sufficient funds not transferred\");\n        require(loan.loanStatus == LoanStatus.ACTIVE, \"Incorrect loan status\");\n\n        loan.lender = msg.sender;\n        loan.loanStatus = LoanStatus.FUNDED;\n\n        emit FundTransferToLoanSuccessful(msg.sender, msg.value);\n\n        loan.startedOn = now;\n\n        address(uint160(loan.borrower)).transfer(loan.loanAmount);\n\n        emit FundTransferToBorrowerSuccessful(loan.borrower, loan.loanAmount);\n\n    }\n\n    function getLoanData() view public returns (\n        uint256 _loanAmount, uint128 _duration, uint256 _interest, uint256 startedOn, LoanStatus _loanStatus,\n        address _collateralAddress, uint256 _collateralAmount, uint256 _collateralPrice, CollateralStatus _collateralStatus,\n        uint256 _outstandingAmount, uint256 _remainingCollateralAmount,\n        address _borrower, address _lender) {\n\n        return (loan.loanAmount, loan.duration, loan.interestRate, loan.startedOn, loan.loanStatus,\n            loan.collateral.collateralAddress, loan.collateral.collateralAmount,\n            loan.collateral.collateralPrice, loan.collateral.collateralStatus,\n            loan.outstandingAmount, remainingCollateralAmount,\n            loan.borrower, loan.lender);\n\n    }\n\n    function getPaidRepaymentsCount() view public returns (uint256) {\n      return repayments.length;\n    }\n\n    function getAllPaidRepayments() view public returns(uint256[] memory){\n      return repayments;\n    }\n\n    function getCurrentRepaymentNumber() view public returns(uint256) {\n      return LoanMath.getRepaymentNumber(loan.startedOn, loan.duration);\n    }\n\n    function getRepaymentAmount(uint256 repaymentNumber) view public returns(uint256 amount, uint256 monthlyInterest, uint256 fees){\n\n        uint256 totalLoanRepayments = LoanMath.getTotalNumberOfRepayments(loan.duration);\n\n        monthlyInterest = LoanMath.getAverageMonthlyInterest(loan.loanAmount, loan.interestRate, totalLoanRepayments);\n\n        if(repaymentNumber == 1)\n            fees = LoanMath.getPlatformFeeAmount(loan.loanAmount, PLATFORM_FEE_RATE);\n        else\n            fees = 0;\n\n        amount = LoanMath.calculateRepaymentAmount(loan.loanAmount, monthlyInterest, fees, totalLoanRepayments);\n\n        return (amount, monthlyInterest, fees);\n    }\n\n    function repayLoan() public payable {\n\n        require(now <= loan.startedOn + loan.duration * 1 minutes, \"Loan Duration Expired\");\n\n        uint256 repaymentNumber = LoanMath.getRepaymentNumber(loan.startedOn, loan.duration);\n\n        (uint256 amount, , uint256 fees) = getRepaymentAmount(repaymentNumber);\n\n        require(msg.value >= amount, \"Required amount not transferred\");\n\n        if(fees != 0){\n            transferToWallet1(fees);\n        }\n        uint256 toTransfer = amount.sub(fees);\n\n        loan.outstandingAmount = loan.outstandingAmount.sub(msg.value);\n\n        if(loan.outstandingAmount <= 0)\n            loan.loanStatus = LoanStatus.REPAID;\n\n        repayments.push(repaymentNumber);\n\n        address(uint160(loan.lender)).transfer(toTransfer);\n\n        emit LoanRepaid(msg.sender, amount);\n\n    }\n\n    function transferToWallet1(uint256 fees) private {\n        address(uint160(WALLET_1)).transfer(fees);\n    }\n\n    function returnCollateralToBorrower() public OnlyBorrower {\n\n        require(now > loan.startedOn + loan.duration * 1 minutes, \"Loan Still Active\");\n        require(loan.collateral.collateralStatus != CollateralStatus.RETURNED, \"Collateral Already Returned\");\n\n        ERC20 = IERC20(loan.collateral.collateralAddress);\n\n        uint256 collateralAmountToDeduct = LoanMath.calculateCollateralAmountToDeduct(loan.outstandingAmount, loan.collateral.collateralPrice);\n\n        loan.collateral.collateralStatus = CollateralStatus.RETURNED;\n\n        remainingCollateralAmount = collateralAmountToDeduct;\n\n        ERC20.transfer(msg.sender, loan.collateral.collateralAmount.sub(collateralAmountToDeduct));\n\n        emit CollateralTransferReturnedToBorrower(msg.sender, loan.collateral.collateralAmount.sub(collateralAmountToDeduct));\n\n    }\n\n    function claimCollateralByLender() public OnlyLender {\n\n        require(now > loan.startedOn + loan.duration * 1 minutes, \"Loan Still Active\");\n        require(loan.loanStatus != LoanStatus.DEFAULT, \"Collateral Claimed Already\");\n\n        if(loan.outstandingAmount > 0) {\n\n            uint256 collateralAmountToTransfer = LoanMath.calculateCollateralAmountToDeduct(loan.outstandingAmount, loan.collateral.collateralPrice);\n\n            remainingCollateralAmount = remainingCollateralAmount.sub(collateralAmountToTransfer);\n\n            loan.loanStatus = LoanStatus.DEFAULT;\n\n            ERC20 = IERC20(loan.collateral.collateralAddress);\n\n            ERC20.transfer(msg.sender, collateralAmountToTransfer);\n\n            emit CollateralClaimedByLender(msg.sender, collateralAmountToTransfer);\n        }\n    }\n\n}\n",
  "sourcePath": "/home/d/finocial.eth/contracts/FinocialLoan.sol",
  "compiler": {
    "name": "solc",
    "version": "0.5.0+commit.1d4f565a.Emscripten.clang"
  },
  "schemaVersion": "3.0.11",
  "updatedAt": "2019-08-12T18:53:29.936Z",
  "devdoc": {
    "methods": {}
  },
  "userdoc": {
    "methods": {}
  }
}