{
  "contractName": "Finocial",
  "abi": [
    {
      "constant": false,
      "inputs": [],
      "name": "unpause",
      "outputs": [],
      "payable": false,
      "stateMutability": "nonpayable",
      "type": "function"
    },
    {
      "constant": true,
      "inputs": [
        {
          "name": "account",
          "type": "address"
        }
      ],
      "name": "isPauser",
      "outputs": [
        {
          "name": "",
          "type": "bool"
        }
      ],
      "payable": false,
      "stateMutability": "view",
      "type": "function"
    },
    {
      "constant": true,
      "inputs": [],
      "name": "paused",
      "outputs": [
        {
          "name": "",
          "type": "bool"
        }
      ],
      "payable": false,
      "stateMutability": "view",
      "type": "function"
    },
    {
      "constant": false,
      "inputs": [],
      "name": "renouncePauser",
      "outputs": [],
      "payable": false,
      "stateMutability": "nonpayable",
      "type": "function"
    },
    {
      "constant": false,
      "inputs": [],
      "name": "renounceOwnership",
      "outputs": [],
      "payable": false,
      "stateMutability": "nonpayable",
      "type": "function"
    },
    {
      "constant": false,
      "inputs": [
        {
          "name": "account",
          "type": "address"
        }
      ],
      "name": "addPauser",
      "outputs": [],
      "payable": false,
      "stateMutability": "nonpayable",
      "type": "function"
    },
    {
      "constant": false,
      "inputs": [],
      "name": "pause",
      "outputs": [],
      "payable": false,
      "stateMutability": "nonpayable",
      "type": "function"
    },
    {
      "constant": true,
      "inputs": [],
      "name": "owner",
      "outputs": [
        {
          "name": "",
          "type": "address"
        }
      ],
      "payable": false,
      "stateMutability": "view",
      "type": "function"
    },
    {
      "constant": true,
      "inputs": [],
      "name": "isOwner",
      "outputs": [
        {
          "name": "",
          "type": "bool"
        }
      ],
      "payable": false,
      "stateMutability": "view",
      "type": "function"
    },
    {
      "constant": true,
      "inputs": [
        {
          "name": "",
          "type": "uint256"
        }
      ],
      "name": "loans",
      "outputs": [
        {
          "name": "",
          "type": "address"
        }
      ],
      "payable": false,
      "stateMutability": "view",
      "type": "function"
    },
    {
      "constant": false,
      "inputs": [
        {
          "name": "newOwner",
          "type": "address"
        }
      ],
      "name": "transferOwnership",
      "outputs": [],
      "payable": false,
      "stateMutability": "nonpayable",
      "type": "function"
    },
    {
      "inputs": [],
      "payable": false,
      "stateMutability": "nonpayable",
      "type": "constructor"
    },
    {
      "anonymous": false,
      "inputs": [
        {
          "indexed": false,
          "name": "",
          "type": "address"
        },
        {
          "indexed": false,
          "name": "",
          "type": "address"
        }
      ],
      "name": "LoanContractCreated",
      "type": "event"
    },
    {
      "anonymous": false,
      "inputs": [
        {
          "indexed": false,
          "name": "account",
          "type": "address"
        }
      ],
      "name": "Paused",
      "type": "event"
    },
    {
      "anonymous": false,
      "inputs": [
        {
          "indexed": false,
          "name": "account",
          "type": "address"
        }
      ],
      "name": "Unpaused",
      "type": "event"
    },
    {
      "anonymous": false,
      "inputs": [
        {
          "indexed": true,
          "name": "account",
          "type": "address"
        }
      ],
      "name": "PauserAdded",
      "type": "event"
    },
    {
      "anonymous": false,
      "inputs": [
        {
          "indexed": true,
          "name": "account",
          "type": "address"
        }
      ],
      "name": "PauserRemoved",
      "type": "event"
    },
    {
      "anonymous": false,
      "inputs": [
        {
          "indexed": true,
          "name": "previousOwner",
          "type": "address"
        },
        {
          "indexed": true,
          "name": "newOwner",
          "type": "address"
        }
      ],
      "name": "OwnershipTransferred",
      "type": "event"
    },
    {
      "constant": false,
      "inputs": [
        {
          "name": "_loanAmount",
          "type": "uint256"
        },
        {
          "name": "_duration",
          "type": "uint128"
        },
        {
          "name": "_interest",
          "type": "uint256"
        },
        {
          "name": "_collateralAddress",
          "type": "address"
        },
        {
          "name": "_collateralAmount",
          "type": "uint256"
        },
        {
          "name": "_collateralPriceInETH",
          "type": "uint256"
        }
      ],
      "name": "createNewLoanRequest",
      "outputs": [
        {
          "name": "_loanContractAddress",
          "type": "address"
        }
      ],
      "payable": false,
      "stateMutability": "nonpayable",
      "type": "function"
    },
    {
      "constant": true,
      "inputs": [],
      "name": "getAllLoans",
      "outputs": [
        {
          "name": "",
          "type": "address[]"
        }
      ],
      "payable": false,
      "stateMutability": "view",
      "type": "function"
    }
  ],
  "bytecode": "0x608060405234801561001057600080fd5b50336000806101000a81548173ffffffffffffffffffffffffffffffffffffffff021916908373ffffffffffffffffffffffffffffffffffffffff1602179055506000809054906101000a900473ffffffffffffffffffffffffffffffffffffffff1673ffffffffffffffffffffffffffffffffffffffff16600073ffffffffffffffffffffffffffffffffffffffff167f8be0079c531659141344cd1fd0a4f28419497f9722a3daafe3b4186f6b6457e060405160405180910390a36100e533610105640100000000026401000000009004565b6000600260006101000a81548160ff02191690831515021790555061037b565b61012681600161016c640100000000026112d3179091906401000000009004565b8073ffffffffffffffffffffffffffffffffffffffff167f6719d08c1888103bea251a4ed56406bd0c3e69723c8a1686e017e7bbe159b6f860405160405180910390a250565b6101858282610258640100000000026401000000009004565b1515156101fa576040517f08c379a000000000000000000000000000000000000000000000000000000000815260040180806020018281038252601f8152602001807f526f6c65733a206163636f756e7420616c72656164792068617320726f6c650081525060200191505060405180910390fd5b60018260000160008373ffffffffffffffffffffffffffffffffffffffff1673ffffffffffffffffffffffffffffffffffffffff16815260200190815260200160002060006101000a81548160ff0219169083151502179055505050565b60008073ffffffffffffffffffffffffffffffffffffffff168273ffffffffffffffffffffffffffffffffffffffff1614151515610324576040517f08c379a00000000000000000000000000000000000000000000000000000000081526004018080602001828103825260228152602001807f526f6c65733a206163636f756e7420697320746865207a65726f20616464726581526020017f737300000000000000000000000000000000000000000000000000000000000081525060400191505060405180910390fd5b8260000160008373ffffffffffffffffffffffffffffffffffffffff1673ffffffffffffffffffffffffffffffffffffffff16815260200190815260200160002060009054906101000a900460ff16905092915050565b6138bf806200038b6000396000f3fe608060405260043610620000d3576000357c0100000000000000000000000000000000000000000000000000000000900463ffffffff16806328d3933d14620000d85780633f4ba83a14620001b157806346fbf68e14620001cb5780635c975abb14620002385780636ef8d66d146200026a578063715018a6146200028457806382dc1ec4146200029e5780638456cb5914620002f35780638da5cb5b146200030d5780638f32d59b1462000367578063a5bfd16a1462000399578063e1ec3c68146200040a578063f2fde38b1462000489575b600080fd5b348015620000e557600080fd5b506200016f600480360360c0811015620000fe57600080fd5b810190808035906020019092919080356fffffffffffffffffffffffffffffffff16906020019092919080359060200190929190803573ffffffffffffffffffffffffffffffffffffffff1690602001909291908035906020019092919080359060200190929190505050620004de565b604051808273ffffffffffffffffffffffffffffffffffffffff1673ffffffffffffffffffffffffffffffffffffffff16815260200191505060405180910390f35b348015620001be57600080fd5b50620001c962000700565b005b348015620001d857600080fd5b506200021e60048036036020811015620001f157600080fd5b81019080803573ffffffffffffffffffffffffffffffffffffffff169060200190929190505050620008ab565b604051808215151515815260200191505060405180910390f35b3480156200024557600080fd5b5062000250620008ca565b604051808215151515815260200191505060405180910390f35b3480156200027757600080fd5b5062000282620008e1565b005b3480156200029157600080fd5b506200029c620008ee565b005b348015620002ab57600080fd5b50620002f160048036036020811015620002c457600080fd5b81019080803573ffffffffffffffffffffffffffffffffffffffff16906020019092919050505062000a2c565b005b3480156200030057600080fd5b506200030b62000ae0565b005b3480156200031a57600080fd5b506200032562000c8c565b604051808273ffffffffffffffffffffffffffffffffffffffff1673ffffffffffffffffffffffffffffffffffffffff16815260200191505060405180910390f35b3480156200037457600080fd5b506200037f62000cb5565b604051808215151515815260200191505060405180910390f35b348015620003a657600080fd5b50620003b162000d0c565b6040518080602001828103825283818151815260200191508051906020019060200280838360005b83811015620003f6578082015181840152602081019050620003d9565b505050509050019250505060405180910390f35b3480156200041757600080fd5b5062000447600480360360208110156200043057600080fd5b810190808035906020019092919050505062000d9c565b604051808273ffffffffffffffffffffffffffffffffffffffff1673ffffffffffffffffffffffffffffffffffffffff16815260200191505060405180910390f35b3480156200049657600080fd5b50620004dc60048036036020811015620004af57600080fd5b81019080803573ffffffffffffffffffffffffffffffffffffffff16906020019092919050505062000ddb565b005b6000868686868686336000620004f3620013b3565b80898152602001886fffffffffffffffffffffffffffffffff166fffffffffffffffffffffffffffffffff1681526020018781526020018673ffffffffffffffffffffffffffffffffffffffff1673ffffffffffffffffffffffffffffffffffffffff1681526020018581526020018481526020018373ffffffffffffffffffffffffffffffffffffffff1673ffffffffffffffffffffffffffffffffffffffff1681526020018273ffffffffffffffffffffffffffffffffffffffff1673ffffffffffffffffffffffffffffffffffffffff16815260200198505050505050505050604051809103906000f080158015620005f3573d6000803e3d6000fd5b50905060038190806001815401808255809150509060018203906000526020600020016000909192909190916101000a81548173ffffffffffffffffffffffffffffffffffffffff021916908373ffffffffffffffffffffffffffffffffffffffff160217905550507f501964e95aa0f4c9e5c6801f352dc3f16f9d2dcc9a7b3341a8b120a2dcca72c13382604051808373ffffffffffffffffffffffffffffffffffffffff1673ffffffffffffffffffffffffffffffffffffffff1681526020018273ffffffffffffffffffffffffffffffffffffffff1673ffffffffffffffffffffffffffffffffffffffff1681526020019250505060405180910390a18090509695505050505050565b6200070b33620008ab565b1515620007a6576040517f08c379a00000000000000000000000000000000000000000000000000000000081526004018080602001828103825260308152602001807f506175736572526f6c653a2063616c6c657220646f6573206e6f74206861766581526020017f207468652050617573657220726f6c650000000000000000000000000000000081525060400191505060405180910390fd5b600260009054906101000a900460ff1615156200082b576040517f08c379a00000000000000000000000000000000000000000000000000000000081526004018080602001828103825260148152602001807f5061757361626c653a206e6f742070617573656400000000000000000000000081525060200191505060405180910390fd5b6000600260006101000a81548160ff0219169083151502179055507f5db9ee0a495bf2e6ff9c91a7834c1ba4fdd244a5e8aa4e537bd38aeae4b073aa33604051808273ffffffffffffffffffffffffffffffffffffffff1673ffffffffffffffffffffffffffffffffffffffff16815260200191505060405180910390a1565b6000620008c382600162000e6890919063ffffffff16565b9050919050565b6000600260009054906101000a900460ff16905090565b620008ec3362000f8c565b565b620008f862000cb5565b15156200096d576040517f08c379a00000000000000000000000000000000000000000000000000000000081526004018080602001828103825260208152602001807f4f776e61626c653a2063616c6c6572206973206e6f7420746865206f776e657281525060200191505060405180910390fd5b600073ffffffffffffffffffffffffffffffffffffffff166000809054906101000a900473ffffffffffffffffffffffffffffffffffffffff1673ffffffffffffffffffffffffffffffffffffffff167f8be0079c531659141344cd1fd0a4f28419497f9722a3daafe3b4186f6b6457e060405160405180910390a360008060006101000a81548173ffffffffffffffffffffffffffffffffffffffff021916908373ffffffffffffffffffffffffffffffffffffffff160217905550565b62000a3733620008ab565b151562000ad2576040517f08c379a00000000000000000000000000000000000000000000000000000000081526004018080602001828103825260308152602001807f506175736572526f6c653a2063616c6c657220646f6573206e6f74206861766581526020017f207468652050617573657220726f6c650000000000000000000000000000000081525060400191505060405180910390fd5b62000add8162000fe8565b50565b62000aeb33620008ab565b151562000b86576040517f08c379a00000000000000000000000000000000000000000000000000000000081526004018080602001828103825260308152602001807f506175736572526f6c653a2063616c6c657220646f6573206e6f74206861766581526020017f207468652050617573657220726f6c650000000000000000000000000000000081525060400191505060405180910390fd5b600260009054906101000a900460ff1615151562000c0c576040517f08c379a00000000000000000000000000000000000000000000000000000000081526004018080602001828103825260108152602001807f5061757361626c653a207061757365640000000000000000000000000000000081525060200191505060405180910390fd5b6001600260006101000a81548160ff0219169083151502179055507f62e78cea01bee320cd4e420270b5ea74000d11b0c9f74754ebdbfc544b05a25833604051808273ffffffffffffffffffffffffffffffffffffffff1673ffffffffffffffffffffffffffffffffffffffff16815260200191505060405180910390a1565b60008060009054906101000a900473ffffffffffffffffffffffffffffffffffffffff16905090565b60008060009054906101000a900473ffffffffffffffffffffffffffffffffffffffff1673ffffffffffffffffffffffffffffffffffffffff163373ffffffffffffffffffffffffffffffffffffffff1614905090565b6060600380548060200260200160405190810160405280929190818152602001828054801562000d9257602002820191906000526020600020905b8160009054906101000a900473ffffffffffffffffffffffffffffffffffffffff1673ffffffffffffffffffffffffffffffffffffffff168152602001906001019080831162000d47575b5050505050905090565b60038181548110151562000dac57fe5b906000526020600020016000915054906101000a900473ffffffffffffffffffffffffffffffffffffffff1681565b62000de562000cb5565b151562000e5a576040517f08c379a00000000000000000000000000000000000000000000000000000000081526004018080602001828103825260208152602001807f4f776e61626c653a2063616c6c6572206973206e6f7420746865206f776e657281525060200191505060405180910390fd5b62000e658162001044565b50565b60008073ffffffffffffffffffffffffffffffffffffffff168273ffffffffffffffffffffffffffffffffffffffff161415151562000f35576040517f08c379a00000000000000000000000000000000000000000000000000000000081526004018080602001828103825260228152602001807f526f6c65733a206163636f756e7420697320746865207a65726f20616464726581526020017f737300000000000000000000000000000000000000000000000000000000000081525060400191505060405180910390fd5b8260000160008373ffffffffffffffffffffffffffffffffffffffff1673ffffffffffffffffffffffffffffffffffffffff16815260200190815260200160002060009054906101000a900460ff16905092915050565b62000fa2816001620011ce90919063ffffffff16565b8073ffffffffffffffffffffffffffffffffffffffff167fcd265ebaf09df2871cc7bd4133404a235ba12eff2041bb89d9c714a2621c7c7e60405160405180910390a250565b62000ffe816001620012d390919063ffffffff16565b8073ffffffffffffffffffffffffffffffffffffffff167f6719d08c1888103bea251a4ed56406bd0c3e69723c8a1686e017e7bbe159b6f860405160405180910390a250565b600073ffffffffffffffffffffffffffffffffffffffff168173ffffffffffffffffffffffffffffffffffffffff161415151562001110576040517f08c379a00000000000000000000000000000000000000000000000000000000081526004018080602001828103825260268152602001807f4f776e61626c653a206e6577206f776e657220697320746865207a65726f206181526020017f646472657373000000000000000000000000000000000000000000000000000081525060400191505060405180910390fd5b8073ffffffffffffffffffffffffffffffffffffffff166000809054906101000a900473ffffffffffffffffffffffffffffffffffffffff1673ffffffffffffffffffffffffffffffffffffffff167f8be0079c531659141344cd1fd0a4f28419497f9722a3daafe3b4186f6b6457e060405160405180910390a3806000806101000a81548173ffffffffffffffffffffffffffffffffffffffff021916908373ffffffffffffffffffffffffffffffffffffffff16021790555050565b620011da828262000e68565b151562001275576040517f08c379a00000000000000000000000000000000000000000000000000000000081526004018080602001828103825260218152602001807f526f6c65733a206163636f756e7420646f6573206e6f74206861766520726f6c81526020017f650000000000000000000000000000000000000000000000000000000000000081525060400191505060405180910390fd5b60008260000160008373ffffffffffffffffffffffffffffffffffffffff1673ffffffffffffffffffffffffffffffffffffffff16815260200190815260200160002060006101000a81548160ff0219169083151502179055505050565b620012df828262000e68565b15151562001355576040517f08c379a000000000000000000000000000000000000000000000000000000000815260040180806020018281038252601f8152602001807f526f6c65733a206163636f756e7420616c72656164792068617320726f6c650081525060200191505060405180910390fd5b60018260000160008373ffffffffffffffffffffffffffffffffffffffff1673ffffffffffffffffffffffffffffffffffffffff16815260200190815260200160002060006101000a81548160ff0219169083151502179055505050565b6040516124cf80620013c58339019056fe60806040526000600d553480156200001657600080fd5b5060405161010080620024cf83398101806040526101008110156200003a57600080fd5b8101908080519060200190929190805190602001909291908051906020019092919080519060200190929190805190602001909291908051906020019092919080519060200190929190805190602001909291905050508760008001819055508560006001018190555086600060020160006101000a8154816fffffffffffffffffffffffffffffffff02191690836fffffffffffffffffffffffffffffffff1602179055504260006003018190555081600060060160006101000a81548173ffffffffffffffffffffffffffffffffffffffff021916908373ffffffffffffffffffffffffffffffffffffffff16021790555080600060070160006101000a81548173ffffffffffffffffffffffffffffffffffffffff021916908373ffffffffffffffffffffffffffffffffffffffff16021790555060008060070160146101000a81548160ff021916908360048111156200019457fe5b0217905550620001ce888760648a6fffffffffffffffffffffffffffffffff16620002be6401000000000262001d69176401000000009004565b60006005018190555083600d819055506080604051908101604052808673ffffffffffffffffffffffffffffffffffffffff168152602001858152602001848152602001600060038111156200022057fe5b815250600060080160008201518160000160006101000a81548173ffffffffffffffffffffffffffffffffffffffff021916908373ffffffffffffffffffffffffffffffffffffffff160217905550602082015181600101556040820151816002015560608201518160030160006101000a81548160ff02191690836003811115620002a857fe5b0217905550905050505050505050505062000677565b600080620002db8362000403640100000000026401000000009004565b90506000620003906200030b60026004600a0a620004336401000000000262001c9c179091906401000000009004565b6200037362000333600186620005046401000000000262001c12179091906401000000009004565b620003568a8c620004336401000000000262001c9c179091906401000000009004565b620004336401000000000262001c9c179091906401000000009004565b6200058f6401000000000262001b7f179091906401000000009004565b90506000620003af888762000624640100000000026401000000009004565b9050620003f6620003d88284620005046401000000000262001c12179091906401000000009004565b89620005046401000000000262001c12179091906401000000009004565b9350505050949350505050565b600062000429600a836200058f6401000000000262001b7f179091906401000000009004565b9050809050919050565b600080831415620004485760009050620004fe565b600082840290508284828115156200045c57fe5b04141515620004f9576040517f08c379a00000000000000000000000000000000000000000000000000000000081526004018080602001828103825260218152602001807f536166654d6174683a206d756c7469706c69636174696f6e206f766572666c6f81526020017f770000000000000000000000000000000000000000000000000000000000000081525060400191505060405180910390fd5b809150505b92915050565b600080828401905083811015151562000585576040517f08c379a000000000000000000000000000000000000000000000000000000000815260040180806020018281038252601b8152602001807f536166654d6174683a206164646974696f6e206f766572666c6f77000000000081525060200191505060405180910390fd5b8091505092915050565b6000808211151562000609576040517f08c379a000000000000000000000000000000000000000000000000000000000815260040180806020018281038252601a8152602001807f536166654d6174683a206469766973696f6e206279207a65726f00000000000081525060200191505060405180910390fd5b600082848115156200061757fe5b0490508091505092915050565b60006200066f6004600a0a620006528486620004336401000000000262001c9c179091906401000000009004565b6200058f6401000000000262001b7f179091906401000000009004565b905092915050565b611e4880620006876000396000f3fe6080604052600436106100a4576000357c0100000000000000000000000000000000000000000000000000000000900463ffffffff168063074f2543146100a95780631e19500f146100e2578063308759d1146100f95780638bec6373146101245780639e246f281461013b578063a3f14e9614610152578063a85f376114610287578063cc4aa204146102e4578063d08e55be1461033b578063f966ade714610345575b600080fd5b3480156100b557600080fd5b506100be61034f565b60405180848152602001838152602001828152602001935050505060405180910390f35b3480156100ee57600080fd5b506100f7610457565b005b34801561010557600080fd5b5061010e6108b6565b6040518082815260200191505060405180910390f35b34801561013057600080fd5b506101396108bc565b005b34801561014757600080fd5b50610150610d33565b005b34801561015e57600080fd5b50610167611150565b604051808c81526020018b6fffffffffffffffffffffffffffffffff166fffffffffffffffffffffffffffffffff1681526020018a81526020018981526020018860048111156101b357fe5b60ff1681526020018773ffffffffffffffffffffffffffffffffffffffff1673ffffffffffffffffffffffffffffffffffffffff16815260200186815260200185815260200184600381111561020557fe5b60ff1681526020018373ffffffffffffffffffffffffffffffffffffffff1673ffffffffffffffffffffffffffffffffffffffff1681526020018273ffffffffffffffffffffffffffffffffffffffff1673ffffffffffffffffffffffffffffffffffffffff1681526020019b50505050505050505050505060405180910390f35b34801561029357600080fd5b506102c0600480360360208110156102aa57600080fd5b8101908080359060200190929190505050611267565b60405180848152602001838152602001828152602001935050505060405180910390f35b3480156102f057600080fd5b506102f96112a0565b604051808273ffffffffffffffffffffffffffffffffffffffff1673ffffffffffffffffffffffffffffffffffffffff16815260200191505060405180910390f35b6103436112c6565b005b61034d6115c8565b005b6000806000610384600060040154600060020160009054906101000a90046fffffffffffffffffffffffffffffffff166118d1565b905060006103c4600060020160009054906101000a90046fffffffffffffffffffffffffffffffff166fffffffffffffffffffffffffffffffff16611955565b905060006103dc600080015460006001015484611975565b905060018314156103fd576103f6600080015460646119f3565b9350610402565b600093505b61044560008001548286600060020160009054906101000a90046fffffffffffffffffffffffffffffffff166fffffffffffffffffffffffffffffffff16611a26565b94508484849450945094505050909192565b600060070160009054906101000a900473ffffffffffffffffffffffffffffffffffffffff1673ffffffffffffffffffffffffffffffffffffffff163373ffffffffffffffffffffffffffffffffffffffff1614151561051f576040517f08c379a000000000000000000000000000000000000000000000000000000000815260040180806020018281038252600e8152602001807f4e6f7420417574686f726973656400000000000000000000000000000000000081525060200191505060405180910390fd5b603c600060020160009054906101000a90046fffffffffffffffffffffffffffffffff16026fffffffffffffffffffffffffffffffff1660006004015401421115156105d3576040517f08c379a00000000000000000000000000000000000000000000000000000000081526004018080602001828103825260118152602001807f4c6f616e205374696c6c2041637469766500000000000000000000000000000081525060200191505060405180910390fd5b6004808111156105df57fe5b600060070160149054906101000a900460ff1660048111156105fd57fe5b14151515610673576040517f08c379a000000000000000000000000000000000000000000000000000000000815260040180806020018281038252601a8152602001807f436f6c6c61746572616c20436c61696d656420416c726561647900000000000081525060200191505060405180910390fd5b6000806005015411156108b4576000610699600060050154600060080160020154611a79565b90506106b081600d54611a9690919063ffffffff16565b600d819055506004600060070160146101000a81548160ff021916908360048111156106d857fe5b0217905550600060080160000160009054906101000a900473ffffffffffffffffffffffffffffffffffffffff16600c60006101000a81548173ffffffffffffffffffffffffffffffffffffffff021916908373ffffffffffffffffffffffffffffffffffffffff160217905550600c60009054906101000a900473ffffffffffffffffffffffffffffffffffffffff1673ffffffffffffffffffffffffffffffffffffffff1663a9059cbb33836040518363ffffffff167c0100000000000000000000000000000000000000000000000000000000028152600401808373ffffffffffffffffffffffffffffffffffffffff1673ffffffffffffffffffffffffffffffffffffffff16815260200182815260200192505050602060405180830381600087803b15801561080b57600080fd5b505af115801561081f573d6000803e3d6000fd5b505050506040513d602081101561083557600080fd5b8101908080519060200190929190505050507f15925dd8a63fd2bc3c91ee05ab48c9aea56fd272df0960a9f93feb8e68811d863382604051808373ffffffffffffffffffffffffffffffffffffffff1673ffffffffffffffffffffffffffffffffffffffff1681526020018281526020019250505060405180910390a1505b565b600d5481565b600060060160009054906101000a900473ffffffffffffffffffffffffffffffffffffffff1673ffffffffffffffffffffffffffffffffffffffff163373ffffffffffffffffffffffffffffffffffffffff16141515610984576040517f08c379a000000000000000000000000000000000000000000000000000000000815260040180806020018281038252600e8152602001807f4e6f7420417574686f726973656400000000000000000000000000000000000081525060200191505060405180910390fd5b603c600060020160009054906101000a90046fffffffffffffffffffffffffffffffff16026fffffffffffffffffffffffffffffffff166000600401540142111515610a38576040517f08c379a00000000000000000000000000000000000000000000000000000000081526004018080602001828103825260118152602001807f4c6f616e205374696c6c2041637469766500000000000000000000000000000081525060200191505060405180910390fd5b60026003811115610a4557fe5b600060080160030160009054906101000a900460ff166003811115610a6657fe5b14151515610adc576040517f08c379a000000000000000000000000000000000000000000000000000000000815260040180806020018281038252601b8152602001807f436f6c6c61746572616c20416c72656164792052657475726e6564000000000081525060200191505060405180910390fd5b600060080160000160009054906101000a900473ffffffffffffffffffffffffffffffffffffffff16600c60006101000a81548173ffffffffffffffffffffffffffffffffffffffff021916908373ffffffffffffffffffffffffffffffffffffffff1602179055506000610b5e600060050154600060080160020154611a79565b90506002600060080160030160006101000a81548160ff02191690836003811115610b8557fe5b021790555080600d81905550600c60009054906101000a900473ffffffffffffffffffffffffffffffffffffffff1673ffffffffffffffffffffffffffffffffffffffff1663a9059cbb33610beb84600060080160010154611a9690919063ffffffff16565b6040518363ffffffff167c0100000000000000000000000000000000000000000000000000000000028152600401808373ffffffffffffffffffffffffffffffffffffffff1673ffffffffffffffffffffffffffffffffffffffff16815260200182815260200192505050602060405180830381600087803b158015610c7057600080fd5b505af1158015610c84573d6000803e3d6000fd5b505050506040513d6020811015610c9a57600080fd5b8101908080519060200190929190505050507ecb51a40b5bfb15b662e07023490bbef3ba700547267243b4110bc56b558bdd33610ce883600060080160010154611a9690919063ffffffff16565b604051808373ffffffffffffffffffffffffffffffffffffffff1673ffffffffffffffffffffffffffffffffffffffff1681526020018281526020019250505060405180910390a150565b600060080160000160009054906101000a900473ffffffffffffffffffffffffffffffffffffffff16600c60006101000a81548173ffffffffffffffffffffffffffffffffffffffff021916908373ffffffffffffffffffffffffffffffffffffffff160217905550600c60009054906101000a900473ffffffffffffffffffffffffffffffffffffffff1673ffffffffffffffffffffffffffffffffffffffff1663dd62ed3e33306040518363ffffffff167c0100000000000000000000000000000000000000000000000000000000028152600401808373ffffffffffffffffffffffffffffffffffffffff1673ffffffffffffffffffffffffffffffffffffffff1681526020018273ffffffffffffffffffffffffffffffffffffffff1673ffffffffffffffffffffffffffffffffffffffff1681526020019250505060206040518083038186803b158015610e8b57600080fd5b505afa158015610e9f573d6000803e3d6000fd5b505050506040513d6020811015610eb557600080fd5b81019080805190602001909291905050506000600801600101541115610f4d577ffee3bc1c9a06a8de6bb9865159dbc6c023b733290bca216d49b940d9358de74233600060080160010154604051808373ffffffffffffffffffffffffffffffffffffffff1673ffffffffffffffffffffffffffffffffffffffff1681526020018281526020019250505060405180910390a1600080fd5b6001600060080160030160006101000a81548160ff02191690836003811115610f7257fe5b02179055506001600060070160146101000a81548160ff02191690836004811115610f9957fe5b0217905550600c60009054906101000a900473ffffffffffffffffffffffffffffffffffffffff1673ffffffffffffffffffffffffffffffffffffffff166323b872dd33306000600801600101546040518463ffffffff167c0100000000000000000000000000000000000000000000000000000000028152600401808473ffffffffffffffffffffffffffffffffffffffff1673ffffffffffffffffffffffffffffffffffffffff1681526020018373ffffffffffffffffffffffffffffffffffffffff1673ffffffffffffffffffffffffffffffffffffffff1681526020018281526020019350505050602060405180830381600087803b15801561109f57600080fd5b505af11580156110b3573d6000803e3d6000fd5b505050506040513d60208110156110c957600080fd5b8101908080519060200190929190505050507f3b3745ea708c50ef3df78b322408bee397df5a66dd45e0431ec4bb1076280de033600060080160010154604051808373ffffffffffffffffffffffffffffffffffffffff1673ffffffffffffffffffffffffffffffffffffffff1681526020018281526020019250505060405180910390a1565b60008060008060008060008060008060008060000154600060020160009054906101000a90046fffffffffffffffffffffffffffffffff16600060010154600060040154600060070160149054906101000a900460ff16600060080160000160009054906101000a900473ffffffffffffffffffffffffffffffffffffffff16600060080160010154600060080160020154600060080160030160009054906101000a900460ff16600060060160009054906101000a900473ffffffffffffffffffffffffffffffffffffffff16600060070160009054906101000a900473ffffffffffffffffffffffffffffffffffffffff169a509a509a509a509a509a509a509a509a509a509a50909192939495969798999a565b600e8181548110151561127657fe5b90600052602060002090600302016000915090508060000154908060010154908060020154905083565b600c60009054906101000a900473ffffffffffffffffffffffffffffffffffffffff1681565b60008001543410151515611342576040517f08c379a00000000000000000000000000000000000000000000000000000000081526004018080602001828103825260208152602001807f53756666696369656e742066756e6473206e6f74207472616e7366657272656481525060200191505060405180910390fd5b6001600481111561134f57fe5b600060070160149054906101000a900460ff16600481111561136d57fe5b1415156113e2576040517f08c379a00000000000000000000000000000000000000000000000000000000081526004018080602001828103825260158152602001807f496e636f7272656374206c6f616e20737461747573000000000000000000000081525060200191505060405180910390fd5b33600060070160006101000a81548173ffffffffffffffffffffffffffffffffffffffff021916908373ffffffffffffffffffffffffffffffffffffffff1602179055506002600060070160146101000a81548160ff0219169083600481111561144857fe5b02179055507f747523545071b962ccd38531246e12d1c5f1cc7c926c4a7ff6febd23580d571f3334604051808373ffffffffffffffffffffffffffffffffffffffff1673ffffffffffffffffffffffffffffffffffffffff1681526020018281526020019250505060405180910390a142600060040181905550600060060160009054906101000a900473ffffffffffffffffffffffffffffffffffffffff1673ffffffffffffffffffffffffffffffffffffffff166108fc60008001549081150290604051600060405180830381858888f19350505050158015611531573d6000803e3d6000fd5b507f88faa995ac73021fdb872dc84f8f0c47e9d2a09a4acf2998ccd50eca07d66b71600060060160009054906101000a900473ffffffffffffffffffffffffffffffffffffffff166000800154604051808373ffffffffffffffffffffffffffffffffffffffff1673ffffffffffffffffffffffffffffffffffffffff1681526020018281526020019250505060405180910390a1565b603c600060020160009054906101000a90046fffffffffffffffffffffffffffffffff16026fffffffffffffffffffffffffffffffff1660006004015401421115151561167d576040517f08c379a00000000000000000000000000000000000000000000000000000000081526004018080602001828103825260158152602001807f4c6f616e204475726174696f6e2045787069726564000000000000000000000081525060200191505060405180910390fd5b600080600061168a61034f565b925092509250823410151515611708576040517f08c379a000000000000000000000000000000000000000000000000000000000815260040180806020018281038252601f8152602001807f526571756972656420616d6f756e74206e6f74207472616e736665727265640081525060200191505060405180910390fd5b60008214151561171c5761171b82611b21565b5b60006117318385611a9690919063ffffffff16565b905061174b34600060050154611a9690919063ffffffff16565b6000600501819055506000806005015410151561178a576003600060070160146101000a81548160ff0219169083600481111561178457fe5b02179055505b600e6060604051908101604052804281526020013481526020018481525090806001815401808255809150509060018203906000526020600020906003020160009091929091909150600082015181600001556020820151816001015560408201518160020155505050600060070160009054906101000a900473ffffffffffffffffffffffffffffffffffffffff1673ffffffffffffffffffffffffffffffffffffffff166108fc829081150290604051600060405180830381858888f1935050505015801561185f573d6000803e3d6000fd5b507fc200a1f31dd659e356e0f112c82558e25f49f7b0f84438691cd96f5cb35588233385604051808373ffffffffffffffffffffffffffffffffffffffff1673ffffffffffffffffffffffffffffffffffffffff1681526020018281526020019250505060405180910390a150505050565b6000806118fa603c6118ec8642611a9690919063ffffffff16565b611b7f90919063ffffffff16565b9050826fffffffffffffffffffffffffffffffff16811115156119495761193e6001611930600a84611b7f90919063ffffffff16565b611c1290919063ffffffff16565b91508191505061194f565b60009150505b92915050565b600061196b600a83611b7f90919063ffffffff16565b9050809050919050565b60006119ea6119a460026119966004600a0a86611c9c90919063ffffffff16565b611c9c90919063ffffffff16565b6119dc6119bb600186611c1290919063ffffffff16565b6119ce8789611c9c90919063ffffffff16565b611c9c90919063ffffffff16565b611b7f90919063ffffffff16565b90509392505050565b6000611a1e6004600a0a611a108486611c9c90919063ffffffff16565b611b7f90919063ffffffff16565b905092915050565b600080611a3283611955565b9050611a6b611a4a8587611c1290919063ffffffff16565b611a5d8389611b7f90919063ffffffff16565b611c1290919063ffffffff16565b915081915050949350505050565b6000611a8e8284611b7f90919063ffffffff16565b905092915050565b6000828211151515611b10576040517f08c379a000000000000000000000000000000000000000000000000000000000815260040180806020018281038252601e8152602001807f536166654d6174683a207375627472616374696f6e206f766572666c6f77000081525060200191505060405180910390fd5b600082840390508091505092915050565b7388347aeef7b66b743c46cb9d08459784fa1f690873ffffffffffffffffffffffffffffffffffffffff166108fc829081150290604051600060405180830381858888f19350505050158015611b7b573d6000803e3d6000fd5b5050565b60008082111515611bf8576040517f08c379a000000000000000000000000000000000000000000000000000000000815260040180806020018281038252601a8152602001807f536166654d6174683a206469766973696f6e206279207a65726f00000000000081525060200191505060405180910390fd5b60008284811515611c0557fe5b0490508091505092915050565b6000808284019050838110151515611c92576040517f08c379a000000000000000000000000000000000000000000000000000000000815260040180806020018281038252601b8152602001807f536166654d6174683a206164646974696f6e206f766572666c6f77000000000081525060200191505060405180910390fd5b8091505092915050565b600080831415611caf5760009050611d63565b60008284029050828482811515611cc257fe5b04141515611d5e576040517f08c379a00000000000000000000000000000000000000000000000000000000081526004018080602001828103825260218152602001807f536166654d6174683a206d756c7469706c69636174696f6e206f766572666c6f81526020017f770000000000000000000000000000000000000000000000000000000000000081525060400191505060405180910390fd5b809150505b92915050565b600080611d7583611955565b90506000611dda611d9460026004600a0a611c9c90919063ffffffff16565b611dcc611dab600186611c1290919063ffffffff16565b611dbe8a8c611c9c90919063ffffffff16565b611c9c90919063ffffffff16565b611b7f90919063ffffffff16565b90506000611de888876119f3565b9050611e0f611e008284611c1290919063ffffffff16565b89611c1290919063ffffffff16565b935050505094935050505056fea165627a7a7230582048b85d3c42b9a3d6ec1b580cf6de6b415411fcbe5ebf081b5b38caf7e53ab9750029a165627a7a723058203926f215d6cb118d683e9425f465df119669bd0aa80a170821ed7a5f3a659ad10029",
  "source": "pragma solidity ^0.5.0;\n\nimport \"openzeppelin-solidity/contracts/ownership/Ownable.sol\";\nimport \"openzeppelin-solidity/contracts/lifecycle/Pausable.sol\";\nimport \"./FinocialLoan.sol\";\n\ncontract Finocial is Ownable, Pausable {\n\n    address[] public loans;\n\n    constructor() public {\n\n    }\n\n    event LoanContractCreated(address, address);\n\n    function createNewLoanRequest(uint256 _loanAmount, uint128 _duration,\n        uint256 _interest, address _collateralAddress,\n        uint256 _collateralAmount, uint256 _collateralPriceInETH) public returns(address _loanContractAddress) {\n\n            _loanContractAddress = address (new FinocialLoan(_loanAmount, _duration, _interest, _collateralAddress, _collateralAmount, _collateralPriceInETH, msg.sender, address(0)));\n\n            loans.push(_loanContractAddress);\n\n            emit LoanContractCreated(msg.sender, _loanContractAddress);\n\n            return _loanContractAddress;\n    }\n\n    function getAllLoans() public view returns(address[] memory){\n        return loans;\n    }\n\n}\n",
  "sourcePath": "/home/d/finocial.eth/contracts/Finocial.sol",
  "compiler": {
    "name": "solc",
    "version": "0.5.0+commit.1d4f565a.Emscripten.clang"
  },
  "schemaVersion": "3.0.11",
  "updatedAt": "2019-08-07T10:18:26.292Z",
  "devdoc": {
    "methods": {
      "isOwner()": {
        "details": "Returns true if the caller is the current owner."
      },
      "owner()": {
        "details": "Returns the address of the current owner."
      },
      "pause()": {
        "details": "Called by a pauser to pause, triggers stopped state."
      },
      "paused()": {
        "details": "Returns true if the contract is paused, and false otherwise."
      },
      "renounceOwnership()": {
        "details": "Leaves the contract without owner. It will not be possible to call `onlyOwner` functions anymore. Can only be called by the current owner.     * > Note: Renouncing ownership will leave the contract without an owner, thereby removing any functionality that is only available to the owner."
      },
      "transferOwnership(address)": {
        "details": "Transfers ownership of the contract to a new account (`newOwner`). Can only be called by the current owner."
      },
      "unpause()": {
        "details": "Called by a pauser to unpause, returns to normal state."
      }
    }
  },
  "userdoc": {
    "methods": {}
  }
}