{
  "contractName": "LoanProduct",
  "abi": [
    {
      "constant": true,
      "inputs": [],
      "name": "DECIMAL_PLACES_FOR_CALCULATION",
      "outputs": [
        {
          "name": "",
          "type": "uint256"
        }
      ],
      "payable": false,
      "stateMutability": "view",
      "type": "function"
    },
    {
      "constant": true,
      "inputs": [],
      "name": "EXPIRY_DATE",
      "outputs": [
        {
          "name": "",
          "type": "uint256"
        }
      ],
      "payable": false,
      "stateMutability": "view",
      "type": "function"
    },
    {
      "constant": true,
      "inputs": [],
      "name": "BASE_CURRENY",
      "outputs": [
        {
          "name": "",
          "type": "uint256"
        }
      ],
      "payable": false,
      "stateMutability": "view",
      "type": "function"
    },
    {
      "constant": true,
      "inputs": [],
      "name": "LOAN_PRODUCT_GLOBAL_NAME",
      "outputs": [
        {
          "name": "",
          "type": "string"
        }
      ],
      "payable": false,
      "stateMutability": "view",
      "type": "function"
    },
    {
      "constant": false,
      "inputs": [],
      "name": "renounceOwnership",
      "outputs": [],
      "payable": false,
      "stateMutability": "nonpayable",
      "type": "function"
    },
    {
      "constant": true,
      "inputs": [],
      "name": "owner",
      "outputs": [
        {
          "name": "",
          "type": "address"
        }
      ],
      "payable": false,
      "stateMutability": "view",
      "type": "function"
    },
    {
      "constant": true,
      "inputs": [],
      "name": "isOwner",
      "outputs": [
        {
          "name": "",
          "type": "bool"
        }
      ],
      "payable": false,
      "stateMutability": "view",
      "type": "function"
    },
    {
      "constant": true,
      "inputs": [],
      "name": "INSTALLMENT_IN_MULTIPLES",
      "outputs": [
        {
          "name": "",
          "type": "uint256"
        }
      ],
      "payable": false,
      "stateMutability": "view",
      "type": "function"
    },
    {
      "constant": false,
      "inputs": [
        {
          "name": "newOwner",
          "type": "address"
        }
      ],
      "name": "transferOwnership",
      "outputs": [],
      "payable": false,
      "stateMutability": "nonpayable",
      "type": "function"
    },
    {
      "anonymous": false,
      "inputs": [
        {
          "indexed": true,
          "name": "previousOwner",
          "type": "address"
        },
        {
          "indexed": true,
          "name": "newOwner",
          "type": "address"
        }
      ],
      "name": "OwnershipTransferred",
      "type": "event"
    }
  ],
  "bytecode": "0x6080604052336000806101000a81548173ffffffffffffffffffffffffffffffffffffffff021916908373ffffffffffffffffffffffffffffffffffffffff1602179055506000809054906101000a900473ffffffffffffffffffffffffffffffffffffffff1673ffffffffffffffffffffffffffffffffffffffff16600073ffffffffffffffffffffffffffffffffffffffff167f8be0079c531659141344cd1fd0a4f28419497f9722a3daafe3b4186f6b6457e060405160405180910390a3610776806100cf6000396000f3fe608060405260043610610099576000357c0100000000000000000000000000000000000000000000000000000000900463ffffffff16806304ee1b981461009e57806316789940146100c95780634d6f0532146100f45780636b0c2a6f1461011f578063715018a6146101af5780638da5cb5b146101c65780638f32d59b1461021d578063a5a5e3261461024c578063f2fde38b14610277575b600080fd5b3480156100aa57600080fd5b506100b36102c8565b6040518082815260200191505060405180910390f35b3480156100d557600080fd5b506100de6102ce565b6040518082815260200191505060405180910390f35b34801561010057600080fd5b506101096102d4565b6040518082815260200191505060405180910390f35b34801561012b57600080fd5b506101346102da565b6040518080602001828103825283818151815260200191508051906020019080838360005b83811015610174578082015181840152602081019050610159565b50505050905090810190601f1680156101a15780820380516001836020036101000a031916815260200191505b509250505060405180910390f35b3480156101bb57600080fd5b506101c4610378565b005b3480156101d257600080fd5b506101db6104b3565b604051808273ffffffffffffffffffffffffffffffffffffffff1673ffffffffffffffffffffffffffffffffffffffff16815260200191505060405180910390f35b34801561022957600080fd5b506102326104dc565b604051808215151515815260200191505060405180910390f35b34801561025857600080fd5b50610261610533565b6040518082815260200191505060405180910390f35b34801561028357600080fd5b506102c66004803603602081101561029a57600080fd5b81019080803573ffffffffffffffffffffffffffffffffffffffff169060200190929190505050610539565b005b60045481565b60025481565b60035481565b60018054600181600116156101000203166002900480601f0160208091040260200160405190810160405280929190818152602001828054600181600116156101000203166002900480156103705780601f1061034557610100808354040283529160200191610370565b820191906000526020600020905b81548152906001019060200180831161035357829003601f168201915b505050505081565b6103806104dc565b15156103f4576040517f08c379a00000000000000000000000000000000000000000000000000000000081526004018080602001828103825260208152602001807f4f776e61626c653a2063616c6c6572206973206e6f7420746865206f776e657281525060200191505060405180910390fd5b600073ffffffffffffffffffffffffffffffffffffffff166000809054906101000a900473ffffffffffffffffffffffffffffffffffffffff1673ffffffffffffffffffffffffffffffffffffffff167f8be0079c531659141344cd1fd0a4f28419497f9722a3daafe3b4186f6b6457e060405160405180910390a360008060006101000a81548173ffffffffffffffffffffffffffffffffffffffff021916908373ffffffffffffffffffffffffffffffffffffffff160217905550565b60008060009054906101000a900473ffffffffffffffffffffffffffffffffffffffff16905090565b60008060009054906101000a900473ffffffffffffffffffffffffffffffffffffffff1673ffffffffffffffffffffffffffffffffffffffff163373ffffffffffffffffffffffffffffffffffffffff1614905090565b60055481565b6105416104dc565b15156105b5576040517f08c379a00000000000000000000000000000000000000000000000000000000081526004018080602001828103825260208152602001807f4f776e61626c653a2063616c6c6572206973206e6f7420746865206f776e657281525060200191505060405180910390fd5b6105be816105c1565b50565b600073ffffffffffffffffffffffffffffffffffffffff168173ffffffffffffffffffffffffffffffffffffffff161415151561068c576040517f08c379a00000000000000000000000000000000000000000000000000000000081526004018080602001828103825260268152602001807f4f776e61626c653a206e6577206f776e657220697320746865207a65726f206181526020017f646472657373000000000000000000000000000000000000000000000000000081525060400191505060405180910390fd5b8073ffffffffffffffffffffffffffffffffffffffff166000809054906101000a900473ffffffffffffffffffffffffffffffffffffffff1673ffffffffffffffffffffffffffffffffffffffff167f8be0079c531659141344cd1fd0a4f28419497f9722a3daafe3b4186f6b6457e060405160405180910390a3806000806101000a81548173ffffffffffffffffffffffffffffffffffffffff021916908373ffffffffffffffffffffffffffffffffffffffff1602179055505056fea165627a7a72305820d0120f27478f484e57c3dff5ee6da20339023d11cd180b767ca0b4a31f5717090029",
  "source": "/*\n    Copyright 2019 Finocial Group\n\n    Anurag, Chirag, Dev , Saransh\n\n    Licensed under the Apache License, Version 2.0 (the \"License\");\n    you may not use this file except in compliance with the License.\n    You may obtain a copy of the License at\n\n    http://www.apache.org/licenses/LICENSE-2.0\n\n    Unless required by applicable law or agreed to in writing, software\n    distributed under the License is distributed on an \"AS IS\" BASIS,\n    WITHOUT WARRANTIES OR CONDITIONS OF ANY KIND, either express or implied.\n    See the License for the specific language governing permissions and\n    limitations under the License.\n*/\n\npragma solidity 0.5.0;\n\n/**\n*      Access control—that is, \"who is allowed to do this thing\"—is incredibly\n*      important in the world of smart contracts. The access control of your\n*      contract may govern who can mint tokens, vote on proposals, freeze transfers,\n*      and many others. It is therefore critical to understand how you implement it, lest someone else\n**/\n\n\nimport \"openzeppelin-solidity/contracts/ownership/Ownable.sol\";\n\ncontract LoanProduct is Ownable {\n\n  string public LOAN_PRODUCT_GLOBAL_NAME;\n  uint public EXPIRY_DATE;\n  // Currency Configuration\n  uint public BASE_CURRENY;\n  uint public DECIMAL_PLACES_FOR_CALCULATION;\n  uint public INSTALLMENT_IN_MULTIPLES;\n\n  // Loan Product Terms and Agreement\n\n  // DEFAULT_PRINCIPAL\n  // MIN_PRINCIPAL\n  // MAX_PRINCIPAL\n  //\n  // // This means that how many a lender wish to have repayment or number of repayments for borrower to accept it could be 1 or n\n  // DEFAULT_REPAYMENT\n  // MIN_REPAYMENT\n  // MAX_REPAYMENT\n  // // Like loan repayment every 1 month , week , day\n  // REPAID_EVERY\n  //\n  // //\n  // MIN_INTEREST\n  // MAX_INTEREST\n  // DEFAULT_INTEREST\n  //\n  // // Difference of days when loan product if loan has been borrowed or accepted by borrower when does the repayent chart is prepared\n  // DIFFERENCE_DAY\n  //\n  // // Loan settings\n  // AMORTIZATION_TYPE // EQUAL INSTALLMENT or Equal Principal Payments - All principal amounts will be equal but the repayment and interest amounts will vary with each repayment.\n  // REPAYMENT_STRAETGY // HOW ONE PAYMENT IS GOING TO GET  DEDUCTED IF There are parts like principal, interest, fees, penalty\n  // INTEREST_METHOD // FLAT // DECLINING\n  // INTEREST_CALCULATION_PERIOD // SAME As Repayment or Daily Will Calculate the interest on DAILY basis example: Month of February has 28 days and it will calculate interest for 28 days,\n  // DAYS_YEAR\n  // DAYS_MONTH\n  // ARREARS_TOLERANCE\n  // NO_DAYS_LOAN_OVERDUE_MOVING_TO_ARREARS\n  // NO_DAYS_FOR_NPA\n  //\n  // // INTEREST_RECALCULATION\n  // PRE_CLOSURE_INTEREST_RULE //TILL PRECLOUSRE_DATE or TILL FREQUENCY DATE\n  // ADVANCE_PAYMENT_ADJUSTMENT //REDUCE EMI, REDUCE Installment, Reschedule Repayments\n  // INTEREST_RECALCULATION_COMPUNDING_ON // None, Fee, Interest, Fees+Interest\n  // FREQUENCY_FOR_RECALCULATE_OUTSTANDING_PRINCIPAL\n  // FREQUENCY_INTERVAL_FOR_RECALCULATION\n  // ARREARS_RECOGNIZATION_BASED_ON_ORIGINAL_SCHEDULE\n  //\n  // //FUNDS_COLLATERAL_SEttings\n  //\n  // FUNDS_ON_HOLD //true /false\n  // HOLD_%\n  //\n  //\n\n\n\n\n\n\n}\n",
  "sourcePath": "/Users/anurag/Workspace/finocial.eth/contracts/LoanProduct.sol",
  "compiler": {
    "name": "solc",
    "version": "0.5.0+commit.1d4f565a.Emscripten.clang"
  },
  "schemaVersion": "3.0.5",
  "updatedAt": "2019-08-02T04:47:57.080Z",
  "devdoc": {
    "methods": {
      "isOwner()": {
        "details": "Returns true if the caller is the current owner."
      },
      "owner()": {
        "details": "Returns the address of the current owner."
      },
      "renounceOwnership()": {
        "details": "Leaves the contract without owner. It will not be possible to call `onlyOwner` functions anymore. Can only be called by the current owner.     * > Note: Renouncing ownership will leave the contract without an owner, thereby removing any functionality that is only available to the owner."
      },
      "transferOwnership(address)": {
        "details": "Transfers ownership of the contract to a new account (`newOwner`). Can only be called by the current owner."
      }
    }
  },
  "userdoc": {
    "methods": {}
  }
}